{
	"contracts/4_Soxo.sol": {
		"Soxo": {
			"abi": [
				{
					"anonymous": false,
					"inputs": [
						{
							"indexed": false,
							"internalType": "address",
							"name": "_address",
							"type": "address"
						},
						{
							"indexed": false,
							"internalType": "string",
							"name": "_id",
							"type": "string"
						}
					],
					"name": "SM_send_data",
					"type": "event"
				},
				{
					"inputs": [
						{
							"internalType": "string",
							"name": "_id",
							"type": "string"
						}
					],
					"name": "Register",
					"outputs": [],
					"stateMutability": "nonpayable",
					"type": "function"
				},
				{
					"inputs": [
						{
							"internalType": "uint256",
							"name": "",
							"type": "uint256"
						}
					],
					"name": "customers",
					"outputs": [
						{
							"internalType": "string",
							"name": "_ID",
							"type": "string"
						},
						{
							"internalType": "address",
							"name": "_ADDRESS",
							"type": "address"
						}
					],
					"stateMutability": "view",
					"type": "function"
				}
			],
			"devdoc": {
				"kind": "dev",
				"methods": {},
				"version": 1
			},
			"evm": {
				"assembly": "    /* \"contracts/4_Soxo.sol\":58:459  contract Soxo{... */\n  mstore(0x40, 0x80)\n  callvalue\n  dup1\n  iszero\n  tag_1\n  jumpi\n  0x00\n  dup1\n  revert\ntag_1:\n  pop\n  dataSize(sub_0)\n  dup1\n  dataOffset(sub_0)\n  0x00\n  codecopy\n  0x00\n  return\nstop\n\nsub_0: assembly {\n        /* \"contracts/4_Soxo.sol\":58:459  contract Soxo{... */\n      mstore(0x40, 0x80)\n      callvalue\n      dup1\n      iszero\n      tag_1\n      jumpi\n      0x00\n      dup1\n      revert\n    tag_1:\n      pop\n      jumpi(tag_2, lt(calldatasize, 0x04))\n      shr(0xe0, calldataload(0x00))\n      dup1\n      0x40b2d3af\n      eq\n      tag_3\n      jumpi\n      dup1\n      0xc0abda2a\n      eq\n      tag_4\n      jumpi\n    tag_2:\n      0x00\n      dup1\n      revert\n        /* \"contracts/4_Soxo.sol\":266:457  function Register(string memory _id) public {... */\n    tag_3:\n      tag_5\n      0x04\n      dup1\n      calldatasize\n      sub\n      dup2\n      add\n      swap1\n      tag_6\n      swap2\n      swap1\n      tag_7\n      jump\t// in\n    tag_6:\n      tag_8\n      jump\t// in\n    tag_5:\n      stop\n        /* \"contracts/4_Soxo.sol\":77:104  Customer[] public customers */\n    tag_4:\n      tag_9\n      0x04\n      dup1\n      calldatasize\n      sub\n      dup2\n      add\n      swap1\n      tag_10\n      swap2\n      swap1\n      tag_11\n      jump\t// in\n    tag_10:\n      tag_12\n      jump\t// in\n    tag_9:\n      mload(0x40)\n      tag_13\n      swap3\n      swap2\n      swap1\n      tag_14\n      jump\t// in\n    tag_13:\n      mload(0x40)\n      dup1\n      swap2\n      sub\n      swap1\n      return\n        /* \"contracts/4_Soxo.sol\":266:457  function Register(string memory _id) public {... */\n    tag_8:\n        /* \"contracts/4_Soxo.sol\":320:344  Customer memory customer */\n      0x00\n        /* \"contracts/4_Soxo.sol\":347:372  Customer(_id, msg.sender) */\n      mload(0x40)\n      dup1\n      0x40\n      add\n      0x40\n      mstore\n      dup1\n        /* \"contracts/4_Soxo.sol\":356:359  _id */\n      dup4\n        /* \"contracts/4_Soxo.sol\":347:372  Customer(_id, msg.sender) */\n      dup2\n      mstore\n      0x20\n      add\n        /* \"contracts/4_Soxo.sol\":361:371  msg.sender */\n      caller\n        /* \"contracts/4_Soxo.sol\":347:372  Customer(_id, msg.sender) */\n      0xffffffffffffffffffffffffffffffffffffffff\n      and\n      dup2\n      mstore\n      pop\n        /* \"contracts/4_Soxo.sol\":320:372  Customer memory customer = Customer(_id, msg.sender) */\n      swap1\n      pop\n        /* \"contracts/4_Soxo.sol\":382:391  customers */\n      0x00\n        /* \"contracts/4_Soxo.sol\":397:405  customer */\n      dup2\n        /* \"contracts/4_Soxo.sol\":382:406  customers.push(customer) */\n      swap1\n      dup1\n      0x01\n      dup2\n      sload\n      add\n      dup1\n      dup3\n      sstore\n      dup1\n      swap2\n      pop\n      pop\n      0x01\n      swap1\n      sub\n      swap1\n      0x00\n      mstore\n      keccak256(0x00, 0x20)\n      swap1\n      0x02\n      mul\n      add\n      0x00\n      swap1\n      swap2\n      swap1\n      swap2\n      swap1\n      swap2\n      pop\n      0x00\n      dup3\n      add\n      mload\n      dup2\n      0x00\n      add\n      swap1\n      dup2\n      tag_17\n      swap2\n      swap1\n      tag_18\n      jump\t// in\n    tag_17:\n      pop\n      0x20\n      dup3\n      add\n      mload\n      dup2\n      0x01\n      add\n      exp(0x0100, 0x00)\n      dup2\n      sload\n      dup2\n      0xffffffffffffffffffffffffffffffffffffffff\n      mul\n      not\n      and\n      swap1\n      dup4\n      0xffffffffffffffffffffffffffffffffffffffff\n      and\n      mul\n      or\n      swap1\n      sstore\n      pop\n      pop\n      pop\n        /* \"contracts/4_Soxo.sol\":421:450  SM_send_data(msg.sender, _id) */\n      0xc7e1b2507dea4b1d31dddee6a5817c84085c1b7be8eed96a9901eda88e2d0392\n        /* \"contracts/4_Soxo.sol\":434:444  msg.sender */\n      caller\n        /* \"contracts/4_Soxo.sol\":446:449  _id */\n      dup4\n        /* \"contracts/4_Soxo.sol\":421:450  SM_send_data(msg.sender, _id) */\n      mload(0x40)\n      tag_19\n      swap3\n      swap2\n      swap1\n      tag_20\n      jump\t// in\n    tag_19:\n      mload(0x40)\n      dup1\n      swap2\n      sub\n      swap1\n      log1\n        /* \"contracts/4_Soxo.sol\":310:457  {... */\n      pop\n        /* \"contracts/4_Soxo.sol\":266:457  function Register(string memory _id) public {... */\n      pop\n      jump\t// out\n        /* \"contracts/4_Soxo.sol\":77:104  Customer[] public customers */\n    tag_12:\n      0x00\n      dup2\n      dup2\n      sload\n      dup2\n      lt\n      tag_21\n      jumpi\n      0x00\n      dup1\n      revert\n    tag_21:\n      swap1\n      0x00\n      mstore\n      keccak256(0x00, 0x20)\n      swap1\n      0x02\n      mul\n      add\n      0x00\n      swap2\n      pop\n      swap1\n      pop\n      dup1\n      0x00\n      add\n      dup1\n      sload\n      tag_23\n      swap1\n      tag_24\n      jump\t// in\n    tag_23:\n      dup1\n      0x1f\n      add\n      0x20\n      dup1\n      swap2\n      div\n      mul\n      0x20\n      add\n      mload(0x40)\n      swap1\n      dup2\n      add\n      0x40\n      mstore\n      dup1\n      swap3\n      swap2\n      swap1\n      dup2\n      dup2\n      mstore\n      0x20\n      add\n      dup3\n      dup1\n      sload\n      tag_25\n      swap1\n      tag_24\n      jump\t// in\n    tag_25:\n      dup1\n      iszero\n      tag_26\n      jumpi\n      dup1\n      0x1f\n      lt\n      tag_27\n      jumpi\n      0x0100\n      dup1\n      dup4\n      sload\n      div\n      mul\n      dup4\n      mstore\n      swap2\n      0x20\n      add\n      swap2\n      jump(tag_26)\n    tag_27:\n      dup3\n      add\n      swap2\n      swap1\n      0x00\n      mstore\n      keccak256(0x00, 0x20)\n      swap1\n    tag_28:\n      dup2\n      sload\n      dup2\n      mstore\n      swap1\n      0x01\n      add\n      swap1\n      0x20\n      add\n      dup1\n      dup4\n      gt\n      tag_28\n      jumpi\n      dup3\n      swap1\n      sub\n      0x1f\n      and\n      dup3\n      add\n      swap2\n    tag_26:\n      pop\n      pop\n      pop\n      pop\n      pop\n      swap1\n      dup1\n      0x01\n      add\n      0x00\n      swap1\n      sload\n      swap1\n      0x0100\n      exp\n      swap1\n      div\n      0xffffffffffffffffffffffffffffffffffffffff\n      and\n      swap1\n      pop\n      dup3\n      jump\t// out\n        /* \"#utility.yul\":7:82   */\n    tag_29:\n        /* \"#utility.yul\":40:46   */\n      0x00\n        /* \"#utility.yul\":73:75   */\n      0x40\n        /* \"#utility.yul\":67:76   */\n      mload\n        /* \"#utility.yul\":57:76   */\n      swap1\n      pop\n        /* \"#utility.yul\":7:82   */\n      swap1\n      jump\t// out\n        /* \"#utility.yul\":88:205   */\n    tag_30:\n        /* \"#utility.yul\":197:198   */\n      0x00\n        /* \"#utility.yul\":194:195   */\n      dup1\n        /* \"#utility.yul\":187:199   */\n      revert\n        /* \"#utility.yul\":211:328   */\n    tag_31:\n        /* \"#utility.yul\":320:321   */\n      0x00\n        /* \"#utility.yul\":317:318   */\n      dup1\n        /* \"#utility.yul\":310:322   */\n      revert\n        /* \"#utility.yul\":334:451   */\n    tag_32:\n        /* \"#utility.yul\":443:444   */\n      0x00\n        /* \"#utility.yul\":440:441   */\n      dup1\n        /* \"#utility.yul\":433:445   */\n      revert\n        /* \"#utility.yul\":457:574   */\n    tag_33:\n        /* \"#utility.yul\":566:567   */\n      0x00\n        /* \"#utility.yul\":563:564   */\n      dup1\n        /* \"#utility.yul\":556:568   */\n      revert\n        /* \"#utility.yul\":580:682   */\n    tag_34:\n        /* \"#utility.yul\":621:627   */\n      0x00\n        /* \"#utility.yul\":672:674   */\n      0x1f\n        /* \"#utility.yul\":668:675   */\n      not\n        /* \"#utility.yul\":663:665   */\n      0x1f\n        /* \"#utility.yul\":656:661   */\n      dup4\n        /* \"#utility.yul\":652:666   */\n      add\n        /* \"#utility.yul\":648:676   */\n      and\n        /* \"#utility.yul\":638:676   */\n      swap1\n      pop\n        /* \"#utility.yul\":580:682   */\n      swap2\n      swap1\n      pop\n      jump\t// out\n        /* \"#utility.yul\":688:868   */\n    tag_35:\n        /* \"#utility.yul\":736:813   */\n      0x4e487b7100000000000000000000000000000000000000000000000000000000\n        /* \"#utility.yul\":733:734   */\n      0x00\n        /* \"#utility.yul\":726:814   */\n      mstore\n        /* \"#utility.yul\":833:837   */\n      0x41\n        /* \"#utility.yul\":830:831   */\n      0x04\n        /* \"#utility.yul\":823:838   */\n      mstore\n        /* \"#utility.yul\":857:861   */\n      0x24\n        /* \"#utility.yul\":854:855   */\n      0x00\n        /* \"#utility.yul\":847:862   */\n      revert\n        /* \"#utility.yul\":874:1155   */\n    tag_36:\n        /* \"#utility.yul\":957:984   */\n      tag_77\n        /* \"#utility.yul\":979:983   */\n      dup3\n        /* \"#utility.yul\":957:984   */\n      tag_34\n      jump\t// in\n    tag_77:\n        /* \"#utility.yul\":949:955   */\n      dup2\n        /* \"#utility.yul\":945:985   */\n      add\n        /* \"#utility.yul\":1087:1093   */\n      dup2\n        /* \"#utility.yul\":1075:1085   */\n      dup2\n        /* \"#utility.yul\":1072:1094   */\n      lt\n        /* \"#utility.yul\":1051:1069   */\n      0xffffffffffffffff\n        /* \"#utility.yul\":1039:1049   */\n      dup3\n        /* \"#utility.yul\":1036:1070   */\n      gt\n        /* \"#utility.yul\":1033:1095   */\n      or\n        /* \"#utility.yul\":1030:1118   */\n      iszero\n      tag_78\n      jumpi\n        /* \"#utility.yul\":1098:1116   */\n      tag_79\n      tag_35\n      jump\t// in\n    tag_79:\n        /* \"#utility.yul\":1030:1118   */\n    tag_78:\n        /* \"#utility.yul\":1138:1148   */\n      dup1\n        /* \"#utility.yul\":1134:1136   */\n      0x40\n        /* \"#utility.yul\":1127:1149   */\n      mstore\n        /* \"#utility.yul\":917:1155   */\n      pop\n        /* \"#utility.yul\":874:1155   */\n      pop\n      pop\n      jump\t// out\n        /* \"#utility.yul\":1161:1290   */\n    tag_37:\n        /* \"#utility.yul\":1195:1201   */\n      0x00\n        /* \"#utility.yul\":1222:1242   */\n      tag_81\n      tag_29\n      jump\t// in\n    tag_81:\n        /* \"#utility.yul\":1212:1242   */\n      swap1\n      pop\n        /* \"#utility.yul\":1251:1284   */\n      tag_82\n        /* \"#utility.yul\":1279:1283   */\n      dup3\n        /* \"#utility.yul\":1271:1277   */\n      dup3\n        /* \"#utility.yul\":1251:1284   */\n      tag_36\n      jump\t// in\n    tag_82:\n        /* \"#utility.yul\":1161:1290   */\n      swap2\n      swap1\n      pop\n      jump\t// out\n        /* \"#utility.yul\":1296:1604   */\n    tag_38:\n        /* \"#utility.yul\":1358:1362   */\n      0x00\n        /* \"#utility.yul\":1448:1466   */\n      0xffffffffffffffff\n        /* \"#utility.yul\":1440:1446   */\n      dup3\n        /* \"#utility.yul\":1437:1467   */\n      gt\n        /* \"#utility.yul\":1434:1490   */\n      iszero\n      tag_84\n      jumpi\n        /* \"#utility.yul\":1470:1488   */\n      tag_85\n      tag_35\n      jump\t// in\n    tag_85:\n        /* \"#utility.yul\":1434:1490   */\n    tag_84:\n        /* \"#utility.yul\":1508:1537   */\n      tag_86\n        /* \"#utility.yul\":1530:1536   */\n      dup3\n        /* \"#utility.yul\":1508:1537   */\n      tag_34\n      jump\t// in\n    tag_86:\n        /* \"#utility.yul\":1500:1537   */\n      swap1\n      pop\n        /* \"#utility.yul\":1592:1596   */\n      0x20\n        /* \"#utility.yul\":1586:1590   */\n      dup2\n        /* \"#utility.yul\":1582:1597   */\n      add\n        /* \"#utility.yul\":1574:1597   */\n      swap1\n      pop\n        /* \"#utility.yul\":1296:1604   */\n      swap2\n      swap1\n      pop\n      jump\t// out\n        /* \"#utility.yul\":1610:1756   */\n    tag_39:\n        /* \"#utility.yul\":1707:1713   */\n      dup3\n        /* \"#utility.yul\":1702:1705   */\n      dup2\n        /* \"#utility.yul\":1697:1700   */\n      dup4\n        /* \"#utility.yul\":1684:1714   */\n      calldatacopy\n        /* \"#utility.yul\":1748:1749   */\n      0x00\n        /* \"#utility.yul\":1739:1745   */\n      dup4\n        /* \"#utility.yul\":1734:1737   */\n      dup4\n        /* \"#utility.yul\":1730:1746   */\n      add\n        /* \"#utility.yul\":1723:1750   */\n      mstore\n        /* \"#utility.yul\":1610:1756   */\n      pop\n      pop\n      pop\n      jump\t// out\n        /* \"#utility.yul\":1762:2187   */\n    tag_40:\n        /* \"#utility.yul\":1840:1845   */\n      0x00\n        /* \"#utility.yul\":1865:1931   */\n      tag_89\n        /* \"#utility.yul\":1881:1930   */\n      tag_90\n        /* \"#utility.yul\":1923:1929   */\n      dup5\n        /* \"#utility.yul\":1881:1930   */\n      tag_38\n      jump\t// in\n    tag_90:\n        /* \"#utility.yul\":1865:1931   */\n      tag_37\n      jump\t// in\n    tag_89:\n        /* \"#utility.yul\":1856:1931   */\n      swap1\n      pop\n        /* \"#utility.yul\":1954:1960   */\n      dup3\n        /* \"#utility.yul\":1947:1952   */\n      dup2\n        /* \"#utility.yul\":1940:1961   */\n      mstore\n        /* \"#utility.yul\":1992:1996   */\n      0x20\n        /* \"#utility.yul\":1985:1990   */\n      dup2\n        /* \"#utility.yul\":1981:1997   */\n      add\n        /* \"#utility.yul\":2030:2033   */\n      dup5\n        /* \"#utility.yul\":2021:2027   */\n      dup5\n        /* \"#utility.yul\":2016:2019   */\n      dup5\n        /* \"#utility.yul\":2012:2028   */\n      add\n        /* \"#utility.yul\":2009:2034   */\n      gt\n        /* \"#utility.yul\":2006:2118   */\n      iszero\n      tag_91\n      jumpi\n        /* \"#utility.yul\":2037:2116   */\n      tag_92\n      tag_33\n      jump\t// in\n    tag_92:\n        /* \"#utility.yul\":2006:2118   */\n    tag_91:\n        /* \"#utility.yul\":2127:2181   */\n      tag_93\n        /* \"#utility.yul\":2174:2180   */\n      dup5\n        /* \"#utility.yul\":2169:2172   */\n      dup3\n        /* \"#utility.yul\":2164:2167   */\n      dup6\n        /* \"#utility.yul\":2127:2181   */\n      tag_39\n      jump\t// in\n    tag_93:\n        /* \"#utility.yul\":1846:2187   */\n      pop\n        /* \"#utility.yul\":1762:2187   */\n      swap4\n      swap3\n      pop\n      pop\n      pop\n      jump\t// out\n        /* \"#utility.yul\":2207:2547   */\n    tag_41:\n        /* \"#utility.yul\":2263:2268   */\n      0x00\n        /* \"#utility.yul\":2312:2315   */\n      dup3\n        /* \"#utility.yul\":2305:2309   */\n      0x1f\n        /* \"#utility.yul\":2297:2303   */\n      dup4\n        /* \"#utility.yul\":2293:2310   */\n      add\n        /* \"#utility.yul\":2289:2316   */\n      slt\n        /* \"#utility.yul\":2279:2401   */\n      tag_95\n      jumpi\n        /* \"#utility.yul\":2320:2399   */\n      tag_96\n      tag_32\n      jump\t// in\n    tag_96:\n        /* \"#utility.yul\":2279:2401   */\n    tag_95:\n        /* \"#utility.yul\":2437:2443   */\n      dup2\n        /* \"#utility.yul\":2424:2444   */\n      calldataload\n        /* \"#utility.yul\":2462:2541   */\n      tag_97\n        /* \"#utility.yul\":2537:2540   */\n      dup5\n        /* \"#utility.yul\":2529:2535   */\n      dup3\n        /* \"#utility.yul\":2522:2526   */\n      0x20\n        /* \"#utility.yul\":2514:2520   */\n      dup7\n        /* \"#utility.yul\":2510:2527   */\n      add\n        /* \"#utility.yul\":2462:2541   */\n      tag_40\n      jump\t// in\n    tag_97:\n        /* \"#utility.yul\":2453:2541   */\n      swap2\n      pop\n        /* \"#utility.yul\":2269:2547   */\n      pop\n        /* \"#utility.yul\":2207:2547   */\n      swap3\n      swap2\n      pop\n      pop\n      jump\t// out\n        /* \"#utility.yul\":2553:3062   */\n    tag_7:\n        /* \"#utility.yul\":2622:2628   */\n      0x00\n        /* \"#utility.yul\":2671:2673   */\n      0x20\n        /* \"#utility.yul\":2659:2668   */\n      dup3\n        /* \"#utility.yul\":2650:2657   */\n      dup5\n        /* \"#utility.yul\":2646:2669   */\n      sub\n        /* \"#utility.yul\":2642:2674   */\n      slt\n        /* \"#utility.yul\":2639:2758   */\n      iszero\n      tag_99\n      jumpi\n        /* \"#utility.yul\":2677:2756   */\n      tag_100\n      tag_30\n      jump\t// in\n    tag_100:\n        /* \"#utility.yul\":2639:2758   */\n    tag_99:\n        /* \"#utility.yul\":2825:2826   */\n      0x00\n        /* \"#utility.yul\":2814:2823   */\n      dup3\n        /* \"#utility.yul\":2810:2827   */\n      add\n        /* \"#utility.yul\":2797:2828   */\n      calldataload\n        /* \"#utility.yul\":2855:2873   */\n      0xffffffffffffffff\n        /* \"#utility.yul\":2847:2853   */\n      dup2\n        /* \"#utility.yul\":2844:2874   */\n      gt\n        /* \"#utility.yul\":2841:2958   */\n      iszero\n      tag_101\n      jumpi\n        /* \"#utility.yul\":2877:2956   */\n      tag_102\n      tag_31\n      jump\t// in\n    tag_102:\n        /* \"#utility.yul\":2841:2958   */\n    tag_101:\n        /* \"#utility.yul\":2982:3045   */\n      tag_103\n        /* \"#utility.yul\":3037:3044   */\n      dup5\n        /* \"#utility.yul\":3028:3034   */\n      dup3\n        /* \"#utility.yul\":3017:3026   */\n      dup6\n        /* \"#utility.yul\":3013:3035   */\n      add\n        /* \"#utility.yul\":2982:3045   */\n      tag_41\n      jump\t// in\n    tag_103:\n        /* \"#utility.yul\":2972:3045   */\n      swap2\n      pop\n        /* \"#utility.yul\":2768:3055   */\n      pop\n        /* \"#utility.yul\":2553:3062   */\n      swap3\n      swap2\n      pop\n      pop\n      jump\t// out\n        /* \"#utility.yul\":3068:3145   */\n    tag_42:\n        /* \"#utility.yul\":3105:3112   */\n      0x00\n        /* \"#utility.yul\":3134:3139   */\n      dup2\n        /* \"#utility.yul\":3123:3139   */\n      swap1\n      pop\n        /* \"#utility.yul\":3068:3145   */\n      swap2\n      swap1\n      pop\n      jump\t// out\n        /* \"#utility.yul\":3151:3273   */\n    tag_43:\n        /* \"#utility.yul\":3224:3248   */\n      tag_106\n        /* \"#utility.yul\":3242:3247   */\n      dup2\n        /* \"#utility.yul\":3224:3248   */\n      tag_42\n      jump\t// in\n    tag_106:\n        /* \"#utility.yul\":3217:3222   */\n      dup2\n        /* \"#utility.yul\":3214:3249   */\n      eq\n        /* \"#utility.yul\":3204:3267   */\n      tag_107\n      jumpi\n        /* \"#utility.yul\":3263:3264   */\n      0x00\n        /* \"#utility.yul\":3260:3261   */\n      dup1\n        /* \"#utility.yul\":3253:3265   */\n      revert\n        /* \"#utility.yul\":3204:3267   */\n    tag_107:\n        /* \"#utility.yul\":3151:3273   */\n      pop\n      jump\t// out\n        /* \"#utility.yul\":3279:3418   */\n    tag_44:\n        /* \"#utility.yul\":3325:3330   */\n      0x00\n        /* \"#utility.yul\":3363:3369   */\n      dup2\n        /* \"#utility.yul\":3350:3370   */\n      calldataload\n        /* \"#utility.yul\":3341:3370   */\n      swap1\n      pop\n        /* \"#utility.yul\":3379:3412   */\n      tag_109\n        /* \"#utility.yul\":3406:3411   */\n      dup2\n        /* \"#utility.yul\":3379:3412   */\n      tag_43\n      jump\t// in\n    tag_109:\n        /* \"#utility.yul\":3279:3418   */\n      swap3\n      swap2\n      pop\n      pop\n      jump\t// out\n        /* \"#utility.yul\":3424:3753   */\n    tag_11:\n        /* \"#utility.yul\":3483:3489   */\n      0x00\n        /* \"#utility.yul\":3532:3534   */\n      0x20\n        /* \"#utility.yul\":3520:3529   */\n      dup3\n        /* \"#utility.yul\":3511:3518   */\n      dup5\n        /* \"#utility.yul\":3507:3530   */\n      sub\n        /* \"#utility.yul\":3503:3535   */\n      slt\n        /* \"#utility.yul\":3500:3619   */\n      iszero\n      tag_111\n      jumpi\n        /* \"#utility.yul\":3538:3617   */\n      tag_112\n      tag_30\n      jump\t// in\n    tag_112:\n        /* \"#utility.yul\":3500:3619   */\n    tag_111:\n        /* \"#utility.yul\":3658:3659   */\n      0x00\n        /* \"#utility.yul\":3683:3736   */\n      tag_113\n        /* \"#utility.yul\":3728:3735   */\n      dup5\n        /* \"#utility.yul\":3719:3725   */\n      dup3\n        /* \"#utility.yul\":3708:3717   */\n      dup6\n        /* \"#utility.yul\":3704:3726   */\n      add\n        /* \"#utility.yul\":3683:3736   */\n      tag_44\n      jump\t// in\n    tag_113:\n        /* \"#utility.yul\":3673:3736   */\n      swap2\n      pop\n        /* \"#utility.yul\":3629:3746   */\n      pop\n        /* \"#utility.yul\":3424:3753   */\n      swap3\n      swap2\n      pop\n      pop\n      jump\t// out\n        /* \"#utility.yul\":3759:3858   */\n    tag_45:\n        /* \"#utility.yul\":3811:3817   */\n      0x00\n        /* \"#utility.yul\":3845:3850   */\n      dup2\n        /* \"#utility.yul\":3839:3851   */\n      mload\n        /* \"#utility.yul\":3829:3851   */\n      swap1\n      pop\n        /* \"#utility.yul\":3759:3858   */\n      swap2\n      swap1\n      pop\n      jump\t// out\n        /* \"#utility.yul\":3864:4033   */\n    tag_46:\n        /* \"#utility.yul\":3948:3959   */\n      0x00\n        /* \"#utility.yul\":3982:3988   */\n      dup3\n        /* \"#utility.yul\":3977:3980   */\n      dup3\n        /* \"#utility.yul\":3970:3989   */\n      mstore\n        /* \"#utility.yul\":4022:4026   */\n      0x20\n        /* \"#utility.yul\":4017:4020   */\n      dup3\n        /* \"#utility.yul\":4013:4027   */\n      add\n        /* \"#utility.yul\":3998:4027   */\n      swap1\n      pop\n        /* \"#utility.yul\":3864:4033   */\n      swap3\n      swap2\n      pop\n      pop\n      jump\t// out\n        /* \"#utility.yul\":4039:4285   */\n    tag_47:\n        /* \"#utility.yul\":4120:4121   */\n      0x00\n        /* \"#utility.yul\":4130:4243   */\n    tag_117:\n        /* \"#utility.yul\":4144:4150   */\n      dup4\n        /* \"#utility.yul\":4141:4142   */\n      dup2\n        /* \"#utility.yul\":4138:4151   */\n      lt\n        /* \"#utility.yul\":4130:4243   */\n      iszero\n      tag_119\n      jumpi\n        /* \"#utility.yul\":4229:4230   */\n      dup1\n        /* \"#utility.yul\":4224:4227   */\n      dup3\n        /* \"#utility.yul\":4220:4231   */\n      add\n        /* \"#utility.yul\":4214:4232   */\n      mload\n        /* \"#utility.yul\":4210:4211   */\n      dup2\n        /* \"#utility.yul\":4205:4208   */\n      dup5\n        /* \"#utility.yul\":4201:4212   */\n      add\n        /* \"#utility.yul\":4194:4233   */\n      mstore\n        /* \"#utility.yul\":4166:4168   */\n      0x20\n        /* \"#utility.yul\":4163:4164   */\n      dup2\n        /* \"#utility.yul\":4159:4169   */\n      add\n        /* \"#utility.yul\":4154:4169   */\n      swap1\n      pop\n        /* \"#utility.yul\":4130:4243   */\n      jump(tag_117)\n    tag_119:\n        /* \"#utility.yul\":4277:4278   */\n      0x00\n        /* \"#utility.yul\":4268:4274   */\n      dup5\n        /* \"#utility.yul\":4263:4266   */\n      dup5\n        /* \"#utility.yul\":4259:4275   */\n      add\n        /* \"#utility.yul\":4252:4279   */\n      mstore\n        /* \"#utility.yul\":4101:4285   */\n      pop\n        /* \"#utility.yul\":4039:4285   */\n      pop\n      pop\n      pop\n      jump\t// out\n        /* \"#utility.yul\":4291:4668   */\n    tag_48:\n        /* \"#utility.yul\":4379:4382   */\n      0x00\n        /* \"#utility.yul\":4407:4446   */\n      tag_121\n        /* \"#utility.yul\":4440:4445   */\n      dup3\n        /* \"#utility.yul\":4407:4446   */\n      tag_45\n      jump\t// in\n    tag_121:\n        /* \"#utility.yul\":4462:4533   */\n      tag_122\n        /* \"#utility.yul\":4526:4532   */\n      dup2\n        /* \"#utility.yul\":4521:4524   */\n      dup6\n        /* \"#utility.yul\":4462:4533   */\n      tag_46\n      jump\t// in\n    tag_122:\n        /* \"#utility.yul\":4455:4533   */\n      swap4\n      pop\n        /* \"#utility.yul\":4542:4607   */\n      tag_123\n        /* \"#utility.yul\":4600:4606   */\n      dup2\n        /* \"#utility.yul\":4595:4598   */\n      dup6\n        /* \"#utility.yul\":4588:4592   */\n      0x20\n        /* \"#utility.yul\":4581:4586   */\n      dup7\n        /* \"#utility.yul\":4577:4593   */\n      add\n        /* \"#utility.yul\":4542:4607   */\n      tag_47\n      jump\t// in\n    tag_123:\n        /* \"#utility.yul\":4632:4661   */\n      tag_124\n        /* \"#utility.yul\":4654:4660   */\n      dup2\n        /* \"#utility.yul\":4632:4661   */\n      tag_34\n      jump\t// in\n    tag_124:\n        /* \"#utility.yul\":4627:4630   */\n      dup5\n        /* \"#utility.yul\":4623:4662   */\n      add\n        /* \"#utility.yul\":4616:4662   */\n      swap2\n      pop\n        /* \"#utility.yul\":4383:4668   */\n      pop\n        /* \"#utility.yul\":4291:4668   */\n      swap3\n      swap2\n      pop\n      pop\n      jump\t// out\n        /* \"#utility.yul\":4674:4800   */\n    tag_49:\n        /* \"#utility.yul\":4711:4718   */\n      0x00\n        /* \"#utility.yul\":4751:4793   */\n      0xffffffffffffffffffffffffffffffffffffffff\n        /* \"#utility.yul\":4744:4749   */\n      dup3\n        /* \"#utility.yul\":4740:4794   */\n      and\n        /* \"#utility.yul\":4729:4794   */\n      swap1\n      pop\n        /* \"#utility.yul\":4674:4800   */\n      swap2\n      swap1\n      pop\n      jump\t// out\n        /* \"#utility.yul\":4806:4902   */\n    tag_50:\n        /* \"#utility.yul\":4843:4850   */\n      0x00\n        /* \"#utility.yul\":4872:4896   */\n      tag_127\n        /* \"#utility.yul\":4890:4895   */\n      dup3\n        /* \"#utility.yul\":4872:4896   */\n      tag_49\n      jump\t// in\n    tag_127:\n        /* \"#utility.yul\":4861:4896   */\n      swap1\n      pop\n        /* \"#utility.yul\":4806:4902   */\n      swap2\n      swap1\n      pop\n      jump\t// out\n        /* \"#utility.yul\":4908:5026   */\n    tag_51:\n        /* \"#utility.yul\":4995:5019   */\n      tag_129\n        /* \"#utility.yul\":5013:5018   */\n      dup2\n        /* \"#utility.yul\":4995:5019   */\n      tag_50\n      jump\t// in\n    tag_129:\n        /* \"#utility.yul\":4990:4993   */\n      dup3\n        /* \"#utility.yul\":4983:5020   */\n      mstore\n        /* \"#utility.yul\":4908:5026   */\n      pop\n      pop\n      jump\t// out\n        /* \"#utility.yul\":5032:5455   */\n    tag_14:\n        /* \"#utility.yul\":5173:5177   */\n      0x00\n        /* \"#utility.yul\":5211:5213   */\n      0x40\n        /* \"#utility.yul\":5200:5209   */\n      dup3\n        /* \"#utility.yul\":5196:5214   */\n      add\n        /* \"#utility.yul\":5188:5214   */\n      swap1\n      pop\n        /* \"#utility.yul\":5260:5269   */\n      dup2\n        /* \"#utility.yul\":5254:5258   */\n      dup2\n        /* \"#utility.yul\":5250:5270   */\n      sub\n        /* \"#utility.yul\":5246:5247   */\n      0x00\n        /* \"#utility.yul\":5235:5244   */\n      dup4\n        /* \"#utility.yul\":5231:5248   */\n      add\n        /* \"#utility.yul\":5224:5271   */\n      mstore\n        /* \"#utility.yul\":5288:5366   */\n      tag_131\n        /* \"#utility.yul\":5361:5365   */\n      dup2\n        /* \"#utility.yul\":5352:5358   */\n      dup6\n        /* \"#utility.yul\":5288:5366   */\n      tag_48\n      jump\t// in\n    tag_131:\n        /* \"#utility.yul\":5280:5366   */\n      swap1\n      pop\n        /* \"#utility.yul\":5376:5448   */\n      tag_132\n        /* \"#utility.yul\":5444:5446   */\n      0x20\n        /* \"#utility.yul\":5433:5442   */\n      dup4\n        /* \"#utility.yul\":5429:5447   */\n      add\n        /* \"#utility.yul\":5420:5426   */\n      dup5\n        /* \"#utility.yul\":5376:5448   */\n      tag_51\n      jump\t// in\n    tag_132:\n        /* \"#utility.yul\":5032:5455   */\n      swap4\n      swap3\n      pop\n      pop\n      pop\n      jump\t// out\n        /* \"#utility.yul\":5461:5641   */\n    tag_52:\n        /* \"#utility.yul\":5509:5586   */\n      0x4e487b7100000000000000000000000000000000000000000000000000000000\n        /* \"#utility.yul\":5506:5507   */\n      0x00\n        /* \"#utility.yul\":5499:5587   */\n      mstore\n        /* \"#utility.yul\":5606:5610   */\n      0x22\n        /* \"#utility.yul\":5603:5604   */\n      0x04\n        /* \"#utility.yul\":5596:5611   */\n      mstore\n        /* \"#utility.yul\":5630:5634   */\n      0x24\n        /* \"#utility.yul\":5627:5628   */\n      0x00\n        /* \"#utility.yul\":5620:5635   */\n      revert\n        /* \"#utility.yul\":5647:5967   */\n    tag_24:\n        /* \"#utility.yul\":5691:5697   */\n      0x00\n        /* \"#utility.yul\":5728:5729   */\n      0x02\n        /* \"#utility.yul\":5722:5726   */\n      dup3\n        /* \"#utility.yul\":5718:5730   */\n      div\n        /* \"#utility.yul\":5708:5730   */\n      swap1\n      pop\n        /* \"#utility.yul\":5775:5776   */\n      0x01\n        /* \"#utility.yul\":5769:5773   */\n      dup3\n        /* \"#utility.yul\":5765:5777   */\n      and\n        /* \"#utility.yul\":5796:5814   */\n      dup1\n        /* \"#utility.yul\":5786:5867   */\n      tag_135\n      jumpi\n        /* \"#utility.yul\":5852:5856   */\n      0x7f\n        /* \"#utility.yul\":5844:5850   */\n      dup3\n        /* \"#utility.yul\":5840:5857   */\n      and\n        /* \"#utility.yul\":5830:5857   */\n      swap2\n      pop\n        /* \"#utility.yul\":5786:5867   */\n    tag_135:\n        /* \"#utility.yul\":5914:5916   */\n      0x20\n        /* \"#utility.yul\":5906:5912   */\n      dup3\n        /* \"#utility.yul\":5903:5917   */\n      lt\n        /* \"#utility.yul\":5883:5901   */\n      dup2\n        /* \"#utility.yul\":5880:5918   */\n      sub\n        /* \"#utility.yul\":5877:5961   */\n      tag_136\n      jumpi\n        /* \"#utility.yul\":5933:5951   */\n      tag_137\n      tag_52\n      jump\t// in\n    tag_137:\n        /* \"#utility.yul\":5877:5961   */\n    tag_136:\n        /* \"#utility.yul\":5698:5967   */\n      pop\n        /* \"#utility.yul\":5647:5967   */\n      swap2\n      swap1\n      pop\n      jump\t// out\n        /* \"#utility.yul\":5973:6114   */\n    tag_53:\n        /* \"#utility.yul\":6022:6026   */\n      0x00\n        /* \"#utility.yul\":6045:6048   */\n      dup2\n        /* \"#utility.yul\":6037:6048   */\n      swap1\n      pop\n        /* \"#utility.yul\":6068:6071   */\n      dup2\n        /* \"#utility.yul\":6065:6066   */\n      0x00\n        /* \"#utility.yul\":6058:6072   */\n      mstore\n        /* \"#utility.yul\":6102:6106   */\n      0x20\n        /* \"#utility.yul\":6099:6100   */\n      0x00\n        /* \"#utility.yul\":6089:6107   */\n      keccak256\n        /* \"#utility.yul\":6081:6107   */\n      swap1\n      pop\n        /* \"#utility.yul\":5973:6114   */\n      swap2\n      swap1\n      pop\n      jump\t// out\n        /* \"#utility.yul\":6120:6213   */\n    tag_54:\n        /* \"#utility.yul\":6157:6163   */\n      0x00\n        /* \"#utility.yul\":6204:6206   */\n      0x20\n        /* \"#utility.yul\":6199:6201   */\n      0x1f\n        /* \"#utility.yul\":6192:6197   */\n      dup4\n        /* \"#utility.yul\":6188:6202   */\n      add\n        /* \"#utility.yul\":6184:6207   */\n      div\n        /* \"#utility.yul\":6174:6207   */\n      swap1\n      pop\n        /* \"#utility.yul\":6120:6213   */\n      swap2\n      swap1\n      pop\n      jump\t// out\n        /* \"#utility.yul\":6219:6326   */\n    tag_55:\n        /* \"#utility.yul\":6263:6271   */\n      0x00\n        /* \"#utility.yul\":6313:6318   */\n      dup3\n        /* \"#utility.yul\":6307:6311   */\n      dup3\n        /* \"#utility.yul\":6303:6319   */\n      shl\n        /* \"#utility.yul\":6282:6319   */\n      swap1\n      pop\n        /* \"#utility.yul\":6219:6326   */\n      swap3\n      swap2\n      pop\n      pop\n      jump\t// out\n        /* \"#utility.yul\":6332:6725   */\n    tag_56:\n        /* \"#utility.yul\":6401:6407   */\n      0x00\n        /* \"#utility.yul\":6451:6452   */\n      0x08\n        /* \"#utility.yul\":6439:6449   */\n      dup4\n        /* \"#utility.yul\":6435:6453   */\n      mul\n        /* \"#utility.yul\":6474:6571   */\n      tag_142\n        /* \"#utility.yul\":6504:6570   */\n      0xffffffffffffffffffffffffffffffffffffffffffffffffffffffffffffffff\n        /* \"#utility.yul\":6493:6502   */\n      dup3\n        /* \"#utility.yul\":6474:6571   */\n      tag_55\n      jump\t// in\n    tag_142:\n        /* \"#utility.yul\":6592:6631   */\n      tag_143\n        /* \"#utility.yul\":6622:6630   */\n      dup7\n        /* \"#utility.yul\":6611:6620   */\n      dup4\n        /* \"#utility.yul\":6592:6631   */\n      tag_55\n      jump\t// in\n    tag_143:\n        /* \"#utility.yul\":6580:6631   */\n      swap6\n      pop\n        /* \"#utility.yul\":6664:6668   */\n      dup1\n        /* \"#utility.yul\":6660:6669   */\n      not\n        /* \"#utility.yul\":6653:6658   */\n      dup5\n        /* \"#utility.yul\":6649:6670   */\n      and\n        /* \"#utility.yul\":6640:6670   */\n      swap4\n      pop\n        /* \"#utility.yul\":6713:6717   */\n      dup1\n        /* \"#utility.yul\":6703:6711   */\n      dup7\n        /* \"#utility.yul\":6699:6718   */\n      and\n        /* \"#utility.yul\":6692:6697   */\n      dup5\n        /* \"#utility.yul\":6689:6719   */\n      or\n        /* \"#utility.yul\":6679:6719   */\n      swap3\n      pop\n        /* \"#utility.yul\":6408:6725   */\n      pop\n      pop\n        /* \"#utility.yul\":6332:6725   */\n      swap4\n      swap3\n      pop\n      pop\n      pop\n      jump\t// out\n        /* \"#utility.yul\":6731:6791   */\n    tag_57:\n        /* \"#utility.yul\":6759:6762   */\n      0x00\n        /* \"#utility.yul\":6780:6785   */\n      dup2\n        /* \"#utility.yul\":6773:6785   */\n      swap1\n      pop\n        /* \"#utility.yul\":6731:6791   */\n      swap2\n      swap1\n      pop\n      jump\t// out\n        /* \"#utility.yul\":6797:6939   */\n    tag_58:\n        /* \"#utility.yul\":6847:6856   */\n      0x00\n        /* \"#utility.yul\":6880:6933   */\n      tag_146\n        /* \"#utility.yul\":6898:6932   */\n      tag_147\n        /* \"#utility.yul\":6907:6931   */\n      tag_148\n        /* \"#utility.yul\":6925:6930   */\n      dup5\n        /* \"#utility.yul\":6907:6931   */\n      tag_42\n      jump\t// in\n    tag_148:\n        /* \"#utility.yul\":6898:6932   */\n      tag_57\n      jump\t// in\n    tag_147:\n        /* \"#utility.yul\":6880:6933   */\n      tag_42\n      jump\t// in\n    tag_146:\n        /* \"#utility.yul\":6867:6933   */\n      swap1\n      pop\n        /* \"#utility.yul\":6797:6939   */\n      swap2\n      swap1\n      pop\n      jump\t// out\n        /* \"#utility.yul\":6945:7020   */\n    tag_59:\n        /* \"#utility.yul\":6988:6991   */\n      0x00\n        /* \"#utility.yul\":7009:7014   */\n      dup2\n        /* \"#utility.yul\":7002:7014   */\n      swap1\n      pop\n        /* \"#utility.yul\":6945:7020   */\n      swap2\n      swap1\n      pop\n      jump\t// out\n        /* \"#utility.yul\":7026:7295   */\n    tag_60:\n        /* \"#utility.yul\":7136:7175   */\n      tag_151\n        /* \"#utility.yul\":7167:7174   */\n      dup4\n        /* \"#utility.yul\":7136:7175   */\n      tag_58\n      jump\t// in\n    tag_151:\n        /* \"#utility.yul\":7197:7288   */\n      tag_152\n        /* \"#utility.yul\":7246:7287   */\n      tag_153\n        /* \"#utility.yul\":7270:7286   */\n      dup3\n        /* \"#utility.yul\":7246:7287   */\n      tag_59\n      jump\t// in\n    tag_153:\n        /* \"#utility.yul\":7238:7244   */\n      dup5\n        /* \"#utility.yul\":7231:7235   */\n      dup5\n        /* \"#utility.yul\":7225:7236   */\n      sload\n        /* \"#utility.yul\":7197:7288   */\n      tag_56\n      jump\t// in\n    tag_152:\n        /* \"#utility.yul\":7191:7195   */\n      dup3\n        /* \"#utility.yul\":7184:7289   */\n      sstore\n        /* \"#utility.yul\":7102:7295   */\n      pop\n        /* \"#utility.yul\":7026:7295   */\n      pop\n      pop\n      pop\n      jump\t// out\n        /* \"#utility.yul\":7301:7374   */\n    tag_61:\n        /* \"#utility.yul\":7346:7349   */\n      0x00\n        /* \"#utility.yul\":7301:7374   */\n      swap1\n      jump\t// out\n        /* \"#utility.yul\":7380:7569   */\n    tag_62:\n        /* \"#utility.yul\":7457:7489   */\n      tag_156\n      tag_61\n      jump\t// in\n    tag_156:\n        /* \"#utility.yul\":7498:7563   */\n      tag_157\n        /* \"#utility.yul\":7556:7562   */\n      dup2\n        /* \"#utility.yul\":7548:7554   */\n      dup5\n        /* \"#utility.yul\":7542:7546   */\n      dup5\n        /* \"#utility.yul\":7498:7563   */\n      tag_60\n      jump\t// in\n    tag_157:\n        /* \"#utility.yul\":7433:7569   */\n      pop\n        /* \"#utility.yul\":7380:7569   */\n      pop\n      pop\n      jump\t// out\n        /* \"#utility.yul\":7575:7761   */\n    tag_63:\n        /* \"#utility.yul\":7635:7755   */\n    tag_159:\n        /* \"#utility.yul\":7652:7655   */\n      dup2\n        /* \"#utility.yul\":7645:7650   */\n      dup2\n        /* \"#utility.yul\":7642:7656   */\n      lt\n        /* \"#utility.yul\":7635:7755   */\n      iszero\n      tag_161\n      jumpi\n        /* \"#utility.yul\":7706:7745   */\n      tag_162\n        /* \"#utility.yul\":7743:7744   */\n      0x00\n        /* \"#utility.yul\":7736:7741   */\n      dup3\n        /* \"#utility.yul\":7706:7745   */\n      tag_62\n      jump\t// in\n    tag_162:\n        /* \"#utility.yul\":7679:7680   */\n      0x01\n        /* \"#utility.yul\":7672:7677   */\n      dup2\n        /* \"#utility.yul\":7668:7681   */\n      add\n        /* \"#utility.yul\":7659:7681   */\n      swap1\n      pop\n        /* \"#utility.yul\":7635:7755   */\n      jump(tag_159)\n    tag_161:\n        /* \"#utility.yul\":7575:7761   */\n      pop\n      pop\n      jump\t// out\n        /* \"#utility.yul\":7767:8310   */\n    tag_64:\n        /* \"#utility.yul\":7868:7870   */\n      0x1f\n        /* \"#utility.yul\":7863:7866   */\n      dup3\n        /* \"#utility.yul\":7860:7871   */\n      gt\n        /* \"#utility.yul\":7857:8303   */\n      iszero\n      tag_164\n      jumpi\n        /* \"#utility.yul\":7902:7940   */\n      tag_165\n        /* \"#utility.yul\":7934:7939   */\n      dup2\n        /* \"#utility.yul\":7902:7940   */\n      tag_53\n      jump\t// in\n    tag_165:\n        /* \"#utility.yul\":7986:8015   */\n      tag_166\n        /* \"#utility.yul\":8004:8014   */\n      dup5\n        /* \"#utility.yul\":7986:8015   */\n      tag_54\n      jump\t// in\n    tag_166:\n        /* \"#utility.yul\":7976:7984   */\n      dup2\n        /* \"#utility.yul\":7972:8016   */\n      add\n        /* \"#utility.yul\":8169:8171   */\n      0x20\n        /* \"#utility.yul\":8157:8167   */\n      dup6\n        /* \"#utility.yul\":8154:8172   */\n      lt\n        /* \"#utility.yul\":8151:8200   */\n      iszero\n      tag_167\n      jumpi\n        /* \"#utility.yul\":8190:8198   */\n      dup2\n        /* \"#utility.yul\":8175:8198   */\n      swap1\n      pop\n        /* \"#utility.yul\":8151:8200   */\n    tag_167:\n        /* \"#utility.yul\":8213:8293   */\n      tag_168\n        /* \"#utility.yul\":8269:8291   */\n      tag_169\n        /* \"#utility.yul\":8287:8290   */\n      dup6\n        /* \"#utility.yul\":8269:8291   */\n      tag_54\n      jump\t// in\n    tag_169:\n        /* \"#utility.yul\":8259:8267   */\n      dup4\n        /* \"#utility.yul\":8255:8292   */\n      add\n        /* \"#utility.yul\":8242:8253   */\n      dup3\n        /* \"#utility.yul\":8213:8293   */\n      tag_63\n      jump\t// in\n    tag_168:\n        /* \"#utility.yul\":7872:8303   */\n      pop\n      pop\n        /* \"#utility.yul\":7857:8303   */\n    tag_164:\n        /* \"#utility.yul\":7767:8310   */\n      pop\n      pop\n      pop\n      jump\t// out\n        /* \"#utility.yul\":8316:8433   */\n    tag_65:\n        /* \"#utility.yul\":8370:8378   */\n      0x00\n        /* \"#utility.yul\":8420:8425   */\n      dup3\n        /* \"#utility.yul\":8414:8418   */\n      dup3\n        /* \"#utility.yul\":8410:8426   */\n      shr\n        /* \"#utility.yul\":8389:8426   */\n      swap1\n      pop\n        /* \"#utility.yul\":8316:8433   */\n      swap3\n      swap2\n      pop\n      pop\n      jump\t// out\n        /* \"#utility.yul\":8439:8608   */\n    tag_66:\n        /* \"#utility.yul\":8483:8489   */\n      0x00\n        /* \"#utility.yul\":8516:8567   */\n      tag_172\n        /* \"#utility.yul\":8564:8565   */\n      0x00\n        /* \"#utility.yul\":8560:8566   */\n      not\n        /* \"#utility.yul\":8552:8557   */\n      dup5\n        /* \"#utility.yul\":8549:8550   */\n      0x08\n        /* \"#utility.yul\":8545:8558   */\n      mul\n        /* \"#utility.yul\":8516:8567   */\n      tag_65\n      jump\t// in\n    tag_172:\n        /* \"#utility.yul\":8512:8568   */\n      not\n        /* \"#utility.yul\":8597:8601   */\n      dup1\n        /* \"#utility.yul\":8591:8595   */\n      dup4\n        /* \"#utility.yul\":8587:8602   */\n      and\n        /* \"#utility.yul\":8577:8602   */\n      swap2\n      pop\n        /* \"#utility.yul\":8490:8608   */\n      pop\n        /* \"#utility.yul\":8439:8608   */\n      swap3\n      swap2\n      pop\n      pop\n      jump\t// out\n        /* \"#utility.yul\":8613:8908   */\n    tag_67:\n        /* \"#utility.yul\":8689:8693   */\n      0x00\n        /* \"#utility.yul\":8835:8864   */\n      tag_174\n        /* \"#utility.yul\":8860:8863   */\n      dup4\n        /* \"#utility.yul\":8854:8858   */\n      dup4\n        /* \"#utility.yul\":8835:8864   */\n      tag_66\n      jump\t// in\n    tag_174:\n        /* \"#utility.yul\":8827:8864   */\n      swap2\n      pop\n        /* \"#utility.yul\":8897:8900   */\n      dup3\n        /* \"#utility.yul\":8894:8895   */\n      0x02\n        /* \"#utility.yul\":8890:8901   */\n      mul\n        /* \"#utility.yul\":8884:8888   */\n      dup3\n        /* \"#utility.yul\":8881:8902   */\n      or\n        /* \"#utility.yul\":8873:8902   */\n      swap1\n      pop\n        /* \"#utility.yul\":8613:8908   */\n      swap3\n      swap2\n      pop\n      pop\n      jump\t// out\n        /* \"#utility.yul\":8913:10308   */\n    tag_18:\n        /* \"#utility.yul\":9030:9067   */\n      tag_176\n        /* \"#utility.yul\":9063:9066   */\n      dup3\n        /* \"#utility.yul\":9030:9067   */\n      tag_45\n      jump\t// in\n    tag_176:\n        /* \"#utility.yul\":9132:9150   */\n      0xffffffffffffffff\n        /* \"#utility.yul\":9124:9130   */\n      dup2\n        /* \"#utility.yul\":9121:9151   */\n      gt\n        /* \"#utility.yul\":9118:9174   */\n      iszero\n      tag_177\n      jumpi\n        /* \"#utility.yul\":9154:9172   */\n      tag_178\n      tag_35\n      jump\t// in\n    tag_178:\n        /* \"#utility.yul\":9118:9174   */\n    tag_177:\n        /* \"#utility.yul\":9198:9236   */\n      tag_179\n        /* \"#utility.yul\":9230:9234   */\n      dup3\n        /* \"#utility.yul\":9224:9235   */\n      sload\n        /* \"#utility.yul\":9198:9236   */\n      tag_24\n      jump\t// in\n    tag_179:\n        /* \"#utility.yul\":9283:9350   */\n      tag_180\n        /* \"#utility.yul\":9343:9349   */\n      dup3\n        /* \"#utility.yul\":9335:9341   */\n      dup3\n        /* \"#utility.yul\":9329:9333   */\n      dup6\n        /* \"#utility.yul\":9283:9350   */\n      tag_64\n      jump\t// in\n    tag_180:\n        /* \"#utility.yul\":9377:9378   */\n      0x00\n        /* \"#utility.yul\":9401:9405   */\n      0x20\n        /* \"#utility.yul\":9388:9405   */\n      swap1\n      pop\n        /* \"#utility.yul\":9433:9435   */\n      0x1f\n        /* \"#utility.yul\":9425:9431   */\n      dup4\n        /* \"#utility.yul\":9422:9436   */\n      gt\n        /* \"#utility.yul\":9450:9451   */\n      0x01\n        /* \"#utility.yul\":9445:10063   */\n      dup2\n      eq\n      tag_182\n      jumpi\n        /* \"#utility.yul\":10107:10108   */\n      0x00\n        /* \"#utility.yul\":10124:10130   */\n      dup5\n        /* \"#utility.yul\":10121:10198   */\n      iszero\n      tag_183\n      jumpi\n        /* \"#utility.yul\":10173:10182   */\n      dup3\n        /* \"#utility.yul\":10168:10171   */\n      dup8\n        /* \"#utility.yul\":10164:10183   */\n      add\n        /* \"#utility.yul\":10158:10184   */\n      mload\n        /* \"#utility.yul\":10149:10184   */\n      swap1\n      pop\n        /* \"#utility.yul\":10121:10198   */\n    tag_183:\n        /* \"#utility.yul\":10224:10291   */\n      tag_184\n        /* \"#utility.yul\":10284:10290   */\n      dup6\n        /* \"#utility.yul\":10277:10282   */\n      dup3\n        /* \"#utility.yul\":10224:10291   */\n      tag_67\n      jump\t// in\n    tag_184:\n        /* \"#utility.yul\":10218:10222   */\n      dup7\n        /* \"#utility.yul\":10211:10292   */\n      sstore\n        /* \"#utility.yul\":10080:10302   */\n      pop\n        /* \"#utility.yul\":9415:10302   */\n      jump(tag_181)\n        /* \"#utility.yul\":9445:10063   */\n    tag_182:\n        /* \"#utility.yul\":9497:9501   */\n      0x1f\n        /* \"#utility.yul\":9493:9502   */\n      not\n        /* \"#utility.yul\":9485:9491   */\n      dup5\n        /* \"#utility.yul\":9481:9503   */\n      and\n        /* \"#utility.yul\":9531:9568   */\n      tag_185\n        /* \"#utility.yul\":9563:9567   */\n      dup7\n        /* \"#utility.yul\":9531:9568   */\n      tag_53\n      jump\t// in\n    tag_185:\n        /* \"#utility.yul\":9590:9591   */\n      0x00\n        /* \"#utility.yul\":9604:9812   */\n    tag_186:\n        /* \"#utility.yul\":9618:9625   */\n      dup3\n        /* \"#utility.yul\":9615:9616   */\n      dup2\n        /* \"#utility.yul\":9612:9626   */\n      lt\n        /* \"#utility.yul\":9604:9812   */\n      iszero\n      tag_188\n      jumpi\n        /* \"#utility.yul\":9697:9706   */\n      dup5\n        /* \"#utility.yul\":9692:9695   */\n      dup10\n        /* \"#utility.yul\":9688:9707   */\n      add\n        /* \"#utility.yul\":9682:9708   */\n      mload\n        /* \"#utility.yul\":9674:9680   */\n      dup3\n        /* \"#utility.yul\":9667:9709   */\n      sstore\n        /* \"#utility.yul\":9748:9749   */\n      0x01\n        /* \"#utility.yul\":9740:9746   */\n      dup3\n        /* \"#utility.yul\":9736:9750   */\n      add\n        /* \"#utility.yul\":9726:9750   */\n      swap2\n      pop\n        /* \"#utility.yul\":9795:9797   */\n      0x20\n        /* \"#utility.yul\":9784:9793   */\n      dup6\n        /* \"#utility.yul\":9780:9798   */\n      add\n        /* \"#utility.yul\":9767:9798   */\n      swap5\n      pop\n        /* \"#utility.yul\":9641:9645   */\n      0x20\n        /* \"#utility.yul\":9638:9639   */\n      dup2\n        /* \"#utility.yul\":9634:9646   */\n      add\n        /* \"#utility.yul\":9629:9646   */\n      swap1\n      pop\n        /* \"#utility.yul\":9604:9812   */\n      jump(tag_186)\n    tag_188:\n        /* \"#utility.yul\":9840:9846   */\n      dup7\n        /* \"#utility.yul\":9831:9838   */\n      dup4\n        /* \"#utility.yul\":9828:9847   */\n      lt\n        /* \"#utility.yul\":9825:10004   */\n      iszero\n      tag_189\n      jumpi\n        /* \"#utility.yul\":9898:9907   */\n      dup5\n        /* \"#utility.yul\":9893:9896   */\n      dup10\n        /* \"#utility.yul\":9889:9908   */\n      add\n        /* \"#utility.yul\":9883:9909   */\n      mload\n        /* \"#utility.yul\":9941:9989   */\n      tag_190\n        /* \"#utility.yul\":9983:9987   */\n      0x1f\n        /* \"#utility.yul\":9975:9981   */\n      dup10\n        /* \"#utility.yul\":9971:9988   */\n      and\n        /* \"#utility.yul\":9960:9969   */\n      dup3\n        /* \"#utility.yul\":9941:9989   */\n      tag_66\n      jump\t// in\n    tag_190:\n        /* \"#utility.yul\":9933:9939   */\n      dup4\n        /* \"#utility.yul\":9926:9990   */\n      sstore\n        /* \"#utility.yul\":9848:10004   */\n      pop\n        /* \"#utility.yul\":9825:10004   */\n    tag_189:\n        /* \"#utility.yul\":10050:10051   */\n      0x01\n        /* \"#utility.yul\":10046:10047   */\n      0x02\n        /* \"#utility.yul\":10038:10044   */\n      dup9\n        /* \"#utility.yul\":10034:10048   */\n      mul\n        /* \"#utility.yul\":10030:10052   */\n      add\n        /* \"#utility.yul\":10024:10028   */\n      dup9\n        /* \"#utility.yul\":10017:10053   */\n      sstore\n        /* \"#utility.yul\":9452:10063   */\n      pop\n      pop\n      pop\n        /* \"#utility.yul\":9415:10302   */\n    tag_181:\n      pop\n        /* \"#utility.yul\":9005:10308   */\n      pop\n      pop\n      pop\n        /* \"#utility.yul\":8913:10308   */\n      pop\n      pop\n      jump\t// out\n        /* \"#utility.yul\":10314:10737   */\n    tag_20:\n        /* \"#utility.yul\":10455:10459   */\n      0x00\n        /* \"#utility.yul\":10493:10495   */\n      0x40\n        /* \"#utility.yul\":10482:10491   */\n      dup3\n        /* \"#utility.yul\":10478:10496   */\n      add\n        /* \"#utility.yul\":10470:10496   */\n      swap1\n      pop\n        /* \"#utility.yul\":10506:10577   */\n      tag_192\n        /* \"#utility.yul\":10574:10575   */\n      0x00\n        /* \"#utility.yul\":10563:10572   */\n      dup4\n        /* \"#utility.yul\":10559:10576   */\n      add\n        /* \"#utility.yul\":10550:10556   */\n      dup6\n        /* \"#utility.yul\":10506:10577   */\n      tag_51\n      jump\t// in\n    tag_192:\n        /* \"#utility.yul\":10624:10633   */\n      dup2\n        /* \"#utility.yul\":10618:10622   */\n      dup2\n        /* \"#utility.yul\":10614:10634   */\n      sub\n        /* \"#utility.yul\":10609:10611   */\n      0x20\n        /* \"#utility.yul\":10598:10607   */\n      dup4\n        /* \"#utility.yul\":10594:10612   */\n      add\n        /* \"#utility.yul\":10587:10635   */\n      mstore\n        /* \"#utility.yul\":10652:10730   */\n      tag_193\n        /* \"#utility.yul\":10725:10729   */\n      dup2\n        /* \"#utility.yul\":10716:10722   */\n      dup5\n        /* \"#utility.yul\":10652:10730   */\n      tag_48\n      jump\t// in\n    tag_193:\n        /* \"#utility.yul\":10644:10730   */\n      swap1\n      pop\n        /* \"#utility.yul\":10314:10737   */\n      swap4\n      swap3\n      pop\n      pop\n      pop\n      jump\t// out\n\n    auxdata: 0xa2646970667358221220f44a850ebd9946d011f2fba86a35f52e33d0df9363457401ee6d1db27c8372fa64736f6c63430008120033\n}\n",
				"bytecode": {
					"linkReferences": {},
					"object": "608060405234801561001057600080fd5b50610895806100206000396000f3fe608060405234801561001057600080fd5b50600436106100365760003560e01c806340b2d3af1461003b578063c0abda2a14610057575b600080fd5b610055600480360381019061005091906103b5565b610088565b005b610071600480360381019061006c9190610434565b61017f565b60405161007f929190610521565b60405180910390f35b600060405180604001604052808381526020013373ffffffffffffffffffffffffffffffffffffffff168152509050600081908060018154018082558091505060019003906000526020600020906002020160009091909190915060008201518160000190816100f8919061075d565b5060208201518160010160006101000a81548173ffffffffffffffffffffffffffffffffffffffff021916908373ffffffffffffffffffffffffffffffffffffffff16021790555050507fc7e1b2507dea4b1d31dddee6a5817c84085c1b7be8eed96a9901eda88e2d0392338360405161017392919061082f565b60405180910390a15050565b6000818154811061018f57600080fd5b90600052602060002090600202016000915090508060000180546101b290610580565b80601f01602080910402602001604051908101604052809291908181526020018280546101de90610580565b801561022b5780601f106102005761010080835404028352916020019161022b565b820191906000526020600020905b81548152906001019060200180831161020e57829003601f168201915b5050505050908060010160009054906101000a900473ffffffffffffffffffffffffffffffffffffffff16905082565b6000604051905090565b600080fd5b600080fd5b600080fd5b600080fd5b6000601f19601f8301169050919050565b7f4e487b7100000000000000000000000000000000000000000000000000000000600052604160045260246000fd5b6102c282610279565b810181811067ffffffffffffffff821117156102e1576102e061028a565b5b80604052505050565b60006102f461025b565b905061030082826102b9565b919050565b600067ffffffffffffffff8211156103205761031f61028a565b5b61032982610279565b9050602081019050919050565b82818337600083830152505050565b600061035861035384610305565b6102ea565b90508281526020810184848401111561037457610373610274565b5b61037f848285610336565b509392505050565b600082601f83011261039c5761039b61026f565b5b81356103ac848260208601610345565b91505092915050565b6000602082840312156103cb576103ca610265565b5b600082013567ffffffffffffffff8111156103e9576103e861026a565b5b6103f584828501610387565b91505092915050565b6000819050919050565b610411816103fe565b811461041c57600080fd5b50565b60008135905061042e81610408565b92915050565b60006020828403121561044a57610449610265565b5b60006104588482850161041f565b91505092915050565b600081519050919050565b600082825260208201905092915050565b60005b8381101561049b578082015181840152602081019050610480565b60008484015250505050565b60006104b282610461565b6104bc818561046c565b93506104cc81856020860161047d565b6104d581610279565b840191505092915050565b600073ffffffffffffffffffffffffffffffffffffffff82169050919050565b600061050b826104e0565b9050919050565b61051b81610500565b82525050565b6000604082019050818103600083015261053b81856104a7565b905061054a6020830184610512565b9392505050565b7f4e487b7100000000000000000000000000000000000000000000000000000000600052602260045260246000fd5b6000600282049050600182168061059857607f821691505b6020821081036105ab576105aa610551565b5b50919050565b60008190508160005260206000209050919050565b60006020601f8301049050919050565b600082821b905092915050565b6000600883026106137fffffffffffffffffffffffffffffffffffffffffffffffffffffffffffffffff826105d6565b61061d86836105d6565b95508019841693508086168417925050509392505050565b6000819050919050565b600061065a610655610650846103fe565b610635565b6103fe565b9050919050565b6000819050919050565b6106748361063f565b61068861068082610661565b8484546105e3565b825550505050565b600090565b61069d610690565b6106a881848461066b565b505050565b5b818110156106cc576106c1600082610695565b6001810190506106ae565b5050565b601f821115610711576106e2816105b1565b6106eb846105c6565b810160208510156106fa578190505b61070e610706856105c6565b8301826106ad565b50505b505050565b600082821c905092915050565b600061073460001984600802610716565b1980831691505092915050565b600061074d8383610723565b9150826002028217905092915050565b61076682610461565b67ffffffffffffffff81111561077f5761077e61028a565b5b6107898254610580565b6107948282856106d0565b600060209050601f8311600181146107c757600084156107b5578287015190505b6107bf8582610741565b865550610827565b601f1984166107d5866105b1565b60005b828110156107fd578489015182556001820191506020850194506020810190506107d8565b8683101561081a5784890151610816601f891682610723565b8355505b6001600288020188555050505b505050505050565b60006040820190506108446000830185610512565b818103602083015261085681846104a7565b9050939250505056fea2646970667358221220f44a850ebd9946d011f2fba86a35f52e33d0df9363457401ee6d1db27c8372fa64736f6c63430008120033",
					"opcodes": "PUSH1 0x80 PUSH1 0x40 MSTORE CALLVALUE DUP1 ISZERO PUSH2 0x10 JUMPI PUSH1 0x0 DUP1 REVERT JUMPDEST POP PUSH2 0x895 DUP1 PUSH2 0x20 PUSH1 0x0 CODECOPY PUSH1 0x0 RETURN INVALID PUSH1 0x80 PUSH1 0x40 MSTORE CALLVALUE DUP1 ISZERO PUSH2 0x10 JUMPI PUSH1 0x0 DUP1 REVERT JUMPDEST POP PUSH1 0x4 CALLDATASIZE LT PUSH2 0x36 JUMPI PUSH1 0x0 CALLDATALOAD PUSH1 0xE0 SHR DUP1 PUSH4 0x40B2D3AF EQ PUSH2 0x3B JUMPI DUP1 PUSH4 0xC0ABDA2A EQ PUSH2 0x57 JUMPI JUMPDEST PUSH1 0x0 DUP1 REVERT JUMPDEST PUSH2 0x55 PUSH1 0x4 DUP1 CALLDATASIZE SUB DUP2 ADD SWAP1 PUSH2 0x50 SWAP2 SWAP1 PUSH2 0x3B5 JUMP JUMPDEST PUSH2 0x88 JUMP JUMPDEST STOP JUMPDEST PUSH2 0x71 PUSH1 0x4 DUP1 CALLDATASIZE SUB DUP2 ADD SWAP1 PUSH2 0x6C SWAP2 SWAP1 PUSH2 0x434 JUMP JUMPDEST PUSH2 0x17F JUMP JUMPDEST PUSH1 0x40 MLOAD PUSH2 0x7F SWAP3 SWAP2 SWAP1 PUSH2 0x521 JUMP JUMPDEST PUSH1 0x40 MLOAD DUP1 SWAP2 SUB SWAP1 RETURN JUMPDEST PUSH1 0x0 PUSH1 0x40 MLOAD DUP1 PUSH1 0x40 ADD PUSH1 0x40 MSTORE DUP1 DUP4 DUP2 MSTORE PUSH1 0x20 ADD CALLER PUSH20 0xFFFFFFFFFFFFFFFFFFFFFFFFFFFFFFFFFFFFFFFF AND DUP2 MSTORE POP SWAP1 POP PUSH1 0x0 DUP2 SWAP1 DUP1 PUSH1 0x1 DUP2 SLOAD ADD DUP1 DUP3 SSTORE DUP1 SWAP2 POP POP PUSH1 0x1 SWAP1 SUB SWAP1 PUSH1 0x0 MSTORE PUSH1 0x20 PUSH1 0x0 KECCAK256 SWAP1 PUSH1 0x2 MUL ADD PUSH1 0x0 SWAP1 SWAP2 SWAP1 SWAP2 SWAP1 SWAP2 POP PUSH1 0x0 DUP3 ADD MLOAD DUP2 PUSH1 0x0 ADD SWAP1 DUP2 PUSH2 0xF8 SWAP2 SWAP1 PUSH2 0x75D JUMP JUMPDEST POP PUSH1 0x20 DUP3 ADD MLOAD DUP2 PUSH1 0x1 ADD PUSH1 0x0 PUSH2 0x100 EXP DUP2 SLOAD DUP2 PUSH20 0xFFFFFFFFFFFFFFFFFFFFFFFFFFFFFFFFFFFFFFFF MUL NOT AND SWAP1 DUP4 PUSH20 0xFFFFFFFFFFFFFFFFFFFFFFFFFFFFFFFFFFFFFFFF AND MUL OR SWAP1 SSTORE POP POP POP PUSH32 0xC7E1B2507DEA4B1D31DDDEE6A5817C84085C1B7BE8EED96A9901EDA88E2D0392 CALLER DUP4 PUSH1 0x40 MLOAD PUSH2 0x173 SWAP3 SWAP2 SWAP1 PUSH2 0x82F JUMP JUMPDEST PUSH1 0x40 MLOAD DUP1 SWAP2 SUB SWAP1 LOG1 POP POP JUMP JUMPDEST PUSH1 0x0 DUP2 DUP2 SLOAD DUP2 LT PUSH2 0x18F JUMPI PUSH1 0x0 DUP1 REVERT JUMPDEST SWAP1 PUSH1 0x0 MSTORE PUSH1 0x20 PUSH1 0x0 KECCAK256 SWAP1 PUSH1 0x2 MUL ADD PUSH1 0x0 SWAP2 POP SWAP1 POP DUP1 PUSH1 0x0 ADD DUP1 SLOAD PUSH2 0x1B2 SWAP1 PUSH2 0x580 JUMP JUMPDEST DUP1 PUSH1 0x1F ADD PUSH1 0x20 DUP1 SWAP2 DIV MUL PUSH1 0x20 ADD PUSH1 0x40 MLOAD SWAP1 DUP2 ADD PUSH1 0x40 MSTORE DUP1 SWAP3 SWAP2 SWAP1 DUP2 DUP2 MSTORE PUSH1 0x20 ADD DUP3 DUP1 SLOAD PUSH2 0x1DE SWAP1 PUSH2 0x580 JUMP JUMPDEST DUP1 ISZERO PUSH2 0x22B JUMPI DUP1 PUSH1 0x1F LT PUSH2 0x200 JUMPI PUSH2 0x100 DUP1 DUP4 SLOAD DIV MUL DUP4 MSTORE SWAP2 PUSH1 0x20 ADD SWAP2 PUSH2 0x22B JUMP JUMPDEST DUP3 ADD SWAP2 SWAP1 PUSH1 0x0 MSTORE PUSH1 0x20 PUSH1 0x0 KECCAK256 SWAP1 JUMPDEST DUP2 SLOAD DUP2 MSTORE SWAP1 PUSH1 0x1 ADD SWAP1 PUSH1 0x20 ADD DUP1 DUP4 GT PUSH2 0x20E JUMPI DUP3 SWAP1 SUB PUSH1 0x1F AND DUP3 ADD SWAP2 JUMPDEST POP POP POP POP POP SWAP1 DUP1 PUSH1 0x1 ADD PUSH1 0x0 SWAP1 SLOAD SWAP1 PUSH2 0x100 EXP SWAP1 DIV PUSH20 0xFFFFFFFFFFFFFFFFFFFFFFFFFFFFFFFFFFFFFFFF AND SWAP1 POP DUP3 JUMP JUMPDEST PUSH1 0x0 PUSH1 0x40 MLOAD SWAP1 POP SWAP1 JUMP JUMPDEST PUSH1 0x0 DUP1 REVERT JUMPDEST PUSH1 0x0 DUP1 REVERT JUMPDEST PUSH1 0x0 DUP1 REVERT JUMPDEST PUSH1 0x0 DUP1 REVERT JUMPDEST PUSH1 0x0 PUSH1 0x1F NOT PUSH1 0x1F DUP4 ADD AND SWAP1 POP SWAP2 SWAP1 POP JUMP JUMPDEST PUSH32 0x4E487B7100000000000000000000000000000000000000000000000000000000 PUSH1 0x0 MSTORE PUSH1 0x41 PUSH1 0x4 MSTORE PUSH1 0x24 PUSH1 0x0 REVERT JUMPDEST PUSH2 0x2C2 DUP3 PUSH2 0x279 JUMP JUMPDEST DUP2 ADD DUP2 DUP2 LT PUSH8 0xFFFFFFFFFFFFFFFF DUP3 GT OR ISZERO PUSH2 0x2E1 JUMPI PUSH2 0x2E0 PUSH2 0x28A JUMP JUMPDEST JUMPDEST DUP1 PUSH1 0x40 MSTORE POP POP POP JUMP JUMPDEST PUSH1 0x0 PUSH2 0x2F4 PUSH2 0x25B JUMP JUMPDEST SWAP1 POP PUSH2 0x300 DUP3 DUP3 PUSH2 0x2B9 JUMP JUMPDEST SWAP2 SWAP1 POP JUMP JUMPDEST PUSH1 0x0 PUSH8 0xFFFFFFFFFFFFFFFF DUP3 GT ISZERO PUSH2 0x320 JUMPI PUSH2 0x31F PUSH2 0x28A JUMP JUMPDEST JUMPDEST PUSH2 0x329 DUP3 PUSH2 0x279 JUMP JUMPDEST SWAP1 POP PUSH1 0x20 DUP2 ADD SWAP1 POP SWAP2 SWAP1 POP JUMP JUMPDEST DUP3 DUP2 DUP4 CALLDATACOPY PUSH1 0x0 DUP4 DUP4 ADD MSTORE POP POP POP JUMP JUMPDEST PUSH1 0x0 PUSH2 0x358 PUSH2 0x353 DUP5 PUSH2 0x305 JUMP JUMPDEST PUSH2 0x2EA JUMP JUMPDEST SWAP1 POP DUP3 DUP2 MSTORE PUSH1 0x20 DUP2 ADD DUP5 DUP5 DUP5 ADD GT ISZERO PUSH2 0x374 JUMPI PUSH2 0x373 PUSH2 0x274 JUMP JUMPDEST JUMPDEST PUSH2 0x37F DUP5 DUP3 DUP6 PUSH2 0x336 JUMP JUMPDEST POP SWAP4 SWAP3 POP POP POP JUMP JUMPDEST PUSH1 0x0 DUP3 PUSH1 0x1F DUP4 ADD SLT PUSH2 0x39C JUMPI PUSH2 0x39B PUSH2 0x26F JUMP JUMPDEST JUMPDEST DUP2 CALLDATALOAD PUSH2 0x3AC DUP5 DUP3 PUSH1 0x20 DUP7 ADD PUSH2 0x345 JUMP JUMPDEST SWAP2 POP POP SWAP3 SWAP2 POP POP JUMP JUMPDEST PUSH1 0x0 PUSH1 0x20 DUP3 DUP5 SUB SLT ISZERO PUSH2 0x3CB JUMPI PUSH2 0x3CA PUSH2 0x265 JUMP JUMPDEST JUMPDEST PUSH1 0x0 DUP3 ADD CALLDATALOAD PUSH8 0xFFFFFFFFFFFFFFFF DUP2 GT ISZERO PUSH2 0x3E9 JUMPI PUSH2 0x3E8 PUSH2 0x26A JUMP JUMPDEST JUMPDEST PUSH2 0x3F5 DUP5 DUP3 DUP6 ADD PUSH2 0x387 JUMP JUMPDEST SWAP2 POP POP SWAP3 SWAP2 POP POP JUMP JUMPDEST PUSH1 0x0 DUP2 SWAP1 POP SWAP2 SWAP1 POP JUMP JUMPDEST PUSH2 0x411 DUP2 PUSH2 0x3FE JUMP JUMPDEST DUP2 EQ PUSH2 0x41C JUMPI PUSH1 0x0 DUP1 REVERT JUMPDEST POP JUMP JUMPDEST PUSH1 0x0 DUP2 CALLDATALOAD SWAP1 POP PUSH2 0x42E DUP2 PUSH2 0x408 JUMP JUMPDEST SWAP3 SWAP2 POP POP JUMP JUMPDEST PUSH1 0x0 PUSH1 0x20 DUP3 DUP5 SUB SLT ISZERO PUSH2 0x44A JUMPI PUSH2 0x449 PUSH2 0x265 JUMP JUMPDEST JUMPDEST PUSH1 0x0 PUSH2 0x458 DUP5 DUP3 DUP6 ADD PUSH2 0x41F JUMP JUMPDEST SWAP2 POP POP SWAP3 SWAP2 POP POP JUMP JUMPDEST PUSH1 0x0 DUP2 MLOAD SWAP1 POP SWAP2 SWAP1 POP JUMP JUMPDEST PUSH1 0x0 DUP3 DUP3 MSTORE PUSH1 0x20 DUP3 ADD SWAP1 POP SWAP3 SWAP2 POP POP JUMP JUMPDEST PUSH1 0x0 JUMPDEST DUP4 DUP2 LT ISZERO PUSH2 0x49B JUMPI DUP1 DUP3 ADD MLOAD DUP2 DUP5 ADD MSTORE PUSH1 0x20 DUP2 ADD SWAP1 POP PUSH2 0x480 JUMP JUMPDEST PUSH1 0x0 DUP5 DUP5 ADD MSTORE POP POP POP POP JUMP JUMPDEST PUSH1 0x0 PUSH2 0x4B2 DUP3 PUSH2 0x461 JUMP JUMPDEST PUSH2 0x4BC DUP2 DUP6 PUSH2 0x46C JUMP JUMPDEST SWAP4 POP PUSH2 0x4CC DUP2 DUP6 PUSH1 0x20 DUP7 ADD PUSH2 0x47D JUMP JUMPDEST PUSH2 0x4D5 DUP2 PUSH2 0x279 JUMP JUMPDEST DUP5 ADD SWAP2 POP POP SWAP3 SWAP2 POP POP JUMP JUMPDEST PUSH1 0x0 PUSH20 0xFFFFFFFFFFFFFFFFFFFFFFFFFFFFFFFFFFFFFFFF DUP3 AND SWAP1 POP SWAP2 SWAP1 POP JUMP JUMPDEST PUSH1 0x0 PUSH2 0x50B DUP3 PUSH2 0x4E0 JUMP JUMPDEST SWAP1 POP SWAP2 SWAP1 POP JUMP JUMPDEST PUSH2 0x51B DUP2 PUSH2 0x500 JUMP JUMPDEST DUP3 MSTORE POP POP JUMP JUMPDEST PUSH1 0x0 PUSH1 0x40 DUP3 ADD SWAP1 POP DUP2 DUP2 SUB PUSH1 0x0 DUP4 ADD MSTORE PUSH2 0x53B DUP2 DUP6 PUSH2 0x4A7 JUMP JUMPDEST SWAP1 POP PUSH2 0x54A PUSH1 0x20 DUP4 ADD DUP5 PUSH2 0x512 JUMP JUMPDEST SWAP4 SWAP3 POP POP POP JUMP JUMPDEST PUSH32 0x4E487B7100000000000000000000000000000000000000000000000000000000 PUSH1 0x0 MSTORE PUSH1 0x22 PUSH1 0x4 MSTORE PUSH1 0x24 PUSH1 0x0 REVERT JUMPDEST PUSH1 0x0 PUSH1 0x2 DUP3 DIV SWAP1 POP PUSH1 0x1 DUP3 AND DUP1 PUSH2 0x598 JUMPI PUSH1 0x7F DUP3 AND SWAP2 POP JUMPDEST PUSH1 0x20 DUP3 LT DUP2 SUB PUSH2 0x5AB JUMPI PUSH2 0x5AA PUSH2 0x551 JUMP JUMPDEST JUMPDEST POP SWAP2 SWAP1 POP JUMP JUMPDEST PUSH1 0x0 DUP2 SWAP1 POP DUP2 PUSH1 0x0 MSTORE PUSH1 0x20 PUSH1 0x0 KECCAK256 SWAP1 POP SWAP2 SWAP1 POP JUMP JUMPDEST PUSH1 0x0 PUSH1 0x20 PUSH1 0x1F DUP4 ADD DIV SWAP1 POP SWAP2 SWAP1 POP JUMP JUMPDEST PUSH1 0x0 DUP3 DUP3 SHL SWAP1 POP SWAP3 SWAP2 POP POP JUMP JUMPDEST PUSH1 0x0 PUSH1 0x8 DUP4 MUL PUSH2 0x613 PUSH32 0xFFFFFFFFFFFFFFFFFFFFFFFFFFFFFFFFFFFFFFFFFFFFFFFFFFFFFFFFFFFFFFFF DUP3 PUSH2 0x5D6 JUMP JUMPDEST PUSH2 0x61D DUP7 DUP4 PUSH2 0x5D6 JUMP JUMPDEST SWAP6 POP DUP1 NOT DUP5 AND SWAP4 POP DUP1 DUP7 AND DUP5 OR SWAP3 POP POP POP SWAP4 SWAP3 POP POP POP JUMP JUMPDEST PUSH1 0x0 DUP2 SWAP1 POP SWAP2 SWAP1 POP JUMP JUMPDEST PUSH1 0x0 PUSH2 0x65A PUSH2 0x655 PUSH2 0x650 DUP5 PUSH2 0x3FE JUMP JUMPDEST PUSH2 0x635 JUMP JUMPDEST PUSH2 0x3FE JUMP JUMPDEST SWAP1 POP SWAP2 SWAP1 POP JUMP JUMPDEST PUSH1 0x0 DUP2 SWAP1 POP SWAP2 SWAP1 POP JUMP JUMPDEST PUSH2 0x674 DUP4 PUSH2 0x63F JUMP JUMPDEST PUSH2 0x688 PUSH2 0x680 DUP3 PUSH2 0x661 JUMP JUMPDEST DUP5 DUP5 SLOAD PUSH2 0x5E3 JUMP JUMPDEST DUP3 SSTORE POP POP POP POP JUMP JUMPDEST PUSH1 0x0 SWAP1 JUMP JUMPDEST PUSH2 0x69D PUSH2 0x690 JUMP JUMPDEST PUSH2 0x6A8 DUP2 DUP5 DUP5 PUSH2 0x66B JUMP JUMPDEST POP POP POP JUMP JUMPDEST JUMPDEST DUP2 DUP2 LT ISZERO PUSH2 0x6CC JUMPI PUSH2 0x6C1 PUSH1 0x0 DUP3 PUSH2 0x695 JUMP JUMPDEST PUSH1 0x1 DUP2 ADD SWAP1 POP PUSH2 0x6AE JUMP JUMPDEST POP POP JUMP JUMPDEST PUSH1 0x1F DUP3 GT ISZERO PUSH2 0x711 JUMPI PUSH2 0x6E2 DUP2 PUSH2 0x5B1 JUMP JUMPDEST PUSH2 0x6EB DUP5 PUSH2 0x5C6 JUMP JUMPDEST DUP2 ADD PUSH1 0x20 DUP6 LT ISZERO PUSH2 0x6FA JUMPI DUP2 SWAP1 POP JUMPDEST PUSH2 0x70E PUSH2 0x706 DUP6 PUSH2 0x5C6 JUMP JUMPDEST DUP4 ADD DUP3 PUSH2 0x6AD JUMP JUMPDEST POP POP JUMPDEST POP POP POP JUMP JUMPDEST PUSH1 0x0 DUP3 DUP3 SHR SWAP1 POP SWAP3 SWAP2 POP POP JUMP JUMPDEST PUSH1 0x0 PUSH2 0x734 PUSH1 0x0 NOT DUP5 PUSH1 0x8 MUL PUSH2 0x716 JUMP JUMPDEST NOT DUP1 DUP4 AND SWAP2 POP POP SWAP3 SWAP2 POP POP JUMP JUMPDEST PUSH1 0x0 PUSH2 0x74D DUP4 DUP4 PUSH2 0x723 JUMP JUMPDEST SWAP2 POP DUP3 PUSH1 0x2 MUL DUP3 OR SWAP1 POP SWAP3 SWAP2 POP POP JUMP JUMPDEST PUSH2 0x766 DUP3 PUSH2 0x461 JUMP JUMPDEST PUSH8 0xFFFFFFFFFFFFFFFF DUP2 GT ISZERO PUSH2 0x77F JUMPI PUSH2 0x77E PUSH2 0x28A JUMP JUMPDEST JUMPDEST PUSH2 0x789 DUP3 SLOAD PUSH2 0x580 JUMP JUMPDEST PUSH2 0x794 DUP3 DUP3 DUP6 PUSH2 0x6D0 JUMP JUMPDEST PUSH1 0x0 PUSH1 0x20 SWAP1 POP PUSH1 0x1F DUP4 GT PUSH1 0x1 DUP2 EQ PUSH2 0x7C7 JUMPI PUSH1 0x0 DUP5 ISZERO PUSH2 0x7B5 JUMPI DUP3 DUP8 ADD MLOAD SWAP1 POP JUMPDEST PUSH2 0x7BF DUP6 DUP3 PUSH2 0x741 JUMP JUMPDEST DUP7 SSTORE POP PUSH2 0x827 JUMP JUMPDEST PUSH1 0x1F NOT DUP5 AND PUSH2 0x7D5 DUP7 PUSH2 0x5B1 JUMP JUMPDEST PUSH1 0x0 JUMPDEST DUP3 DUP2 LT ISZERO PUSH2 0x7FD JUMPI DUP5 DUP10 ADD MLOAD DUP3 SSTORE PUSH1 0x1 DUP3 ADD SWAP2 POP PUSH1 0x20 DUP6 ADD SWAP5 POP PUSH1 0x20 DUP2 ADD SWAP1 POP PUSH2 0x7D8 JUMP JUMPDEST DUP7 DUP4 LT ISZERO PUSH2 0x81A JUMPI DUP5 DUP10 ADD MLOAD PUSH2 0x816 PUSH1 0x1F DUP10 AND DUP3 PUSH2 0x723 JUMP JUMPDEST DUP4 SSTORE POP JUMPDEST PUSH1 0x1 PUSH1 0x2 DUP9 MUL ADD DUP9 SSTORE POP POP POP JUMPDEST POP POP POP POP POP POP JUMP JUMPDEST PUSH1 0x0 PUSH1 0x40 DUP3 ADD SWAP1 POP PUSH2 0x844 PUSH1 0x0 DUP4 ADD DUP6 PUSH2 0x512 JUMP JUMPDEST DUP2 DUP2 SUB PUSH1 0x20 DUP4 ADD MSTORE PUSH2 0x856 DUP2 DUP5 PUSH2 0x4A7 JUMP JUMPDEST SWAP1 POP SWAP4 SWAP3 POP POP POP JUMP INVALID LOG2 PUSH5 0x6970667358 0x22 SLT KECCAK256 DELEGATECALL 0x4A DUP6 0xE 0xBD SWAP10 CHAINID 0xD0 GT CALLCODE 0xFB 0xA8 PUSH11 0x35F52E33D0DF9363457401 0xEE PUSH14 0x1DB27C8372FA64736F6C63430008 SLT STOP CALLER "
				},
				"gasEstimates": {
					"creation": {
						"codeDepositCost": "439400",
						"executionCost": "474",
						"totalCost": "439874"
					},
					"external": {
						"Register(string)": "infinite",
						"customers(uint256)": "infinite"
					}
				},
				"methodIdentifiers": {
					"Register(string)": "40b2d3af",
					"customers(uint256)": "c0abda2a"
				}
			},
			"storageLayout": {
				"storage": [
					{
						"astId": 5,
						"contract": "contracts/4_Soxo.sol:Soxo",
						"label": "customers",
						"offset": 0,
						"slot": "0",
						"type": "t_array(t_struct(Customer)10_storage)dyn_storage"
					}
				],
				"types": {
					"t_address": {
						"encoding": "inplace",
						"label": "address",
						"numberOfBytes": "20"
					},
					"t_array(t_struct(Customer)10_storage)dyn_storage": {
						"base": "t_struct(Customer)10_storage",
						"encoding": "dynamic_array",
						"label": "struct Soxo.Customer[]",
						"numberOfBytes": "32"
					},
					"t_string_storage": {
						"encoding": "bytes",
						"label": "string",
						"numberOfBytes": "32"
					},
					"t_struct(Customer)10_storage": {
						"encoding": "inplace",
						"label": "struct Soxo.Customer",
						"members": [
							{
								"astId": 7,
								"contract": "contracts/4_Soxo.sol:Soxo",
								"label": "_ID",
								"offset": 0,
								"slot": "0",
								"type": "t_string_storage"
							},
							{
								"astId": 9,
								"contract": "contracts/4_Soxo.sol:Soxo",
								"label": "_ADDRESS",
								"offset": 0,
								"slot": "1",
								"type": "t_address"
							}
						],
						"numberOfBytes": "64"
					}
				}
			},
			"userdoc": {
				"kind": "user",
				"methods": {},
				"version": 1
			}
		}
	}
}