{
	"contracts/10_bai6.sol": {
		"Bai6": {
			"abi": [
				{
					"inputs": [],
					"name": "TEST",
					"outputs": [],
					"stateMutability": "nonpayable",
					"type": "function"
				},
				{
					"inputs": [],
					"name": "bar",
					"outputs": [],
					"stateMutability": "nonpayable",
					"type": "function"
				},
				{
					"inputs": [
						{
							"internalType": "uint256[]",
							"name": "myArgs",
							"type": "uint256[]"
						}
					],
					"name": "foo",
					"outputs": [],
					"stateMutability": "nonpayable",
					"type": "function"
				}
			],
			"devdoc": {
				"kind": "dev",
				"methods": {},
				"version": 1
			},
			"evm": {
				"assembly": "    /* \"contracts/10_bai6.sol\":57:1327  contract Bai6{... */\n  mstore(0x40, 0x80)\n  callvalue\n  dup1\n  iszero\n  tag_1\n  jumpi\n  0x00\n  dup1\n  revert\ntag_1:\n  pop\n  dataSize(sub_0)\n  dup1\n  dataOffset(sub_0)\n  0x00\n  codecopy\n  0x00\n  return\nstop\n\nsub_0: assembly {\n        /* \"contracts/10_bai6.sol\":57:1327  contract Bai6{... */\n      mstore(0x40, 0x80)\n      callvalue\n      dup1\n      iszero\n      tag_1\n      jumpi\n      0x00\n      dup1\n      revert\n    tag_1:\n      pop\n      jumpi(tag_2, lt(calldatasize, 0x04))\n      shr(0xe0, calldataload(0x00))\n      dup1\n      0x51d977a6\n      eq\n      tag_3\n      jumpi\n      dup1\n      0x8b44cef1\n      eq\n      tag_4\n      jumpi\n      dup1\n      0xfebb0f7e\n      eq\n      tag_5\n      jumpi\n    tag_2:\n      0x00\n      dup1\n      revert\n        /* \"contracts/10_bai6.sol\":354:671  function TEST() external  {... */\n    tag_3:\n      tag_6\n      tag_7\n      jump\t// in\n    tag_6:\n      stop\n        /* \"contracts/10_bai6.sol\":1262:1325  function foo(uint[] calldata myArgs) external  {... */\n    tag_4:\n      tag_8\n      0x04\n      dup1\n      calldatasize\n      sub\n      dup2\n      add\n      swap1\n      tag_9\n      swap2\n      swap1\n      tag_10\n      jump\t// in\n    tag_9:\n      tag_11\n      jump\t// in\n    tag_8:\n      stop\n        /* \"contracts/10_bai6.sol\":696:1002  function bar() external  {... */\n    tag_5:\n      tag_12\n      tag_13\n      jump\t// in\n    tag_12:\n      stop\n        /* \"contracts/10_bai6.sol\":354:671  function TEST() external  {... */\n    tag_7:\n        /* \"contracts/10_bai6.sol\":390:397  myArray */\n      0x00\n        /* \"contracts/10_bai6.sol\":403:404  2 */\n      0x02\n        /* \"contracts/10_bai6.sol\":390:405  myArray.push(2) */\n      swap1\n      dup1\n      0x01\n      dup2\n      sload\n      add\n      dup1\n      dup3\n      sstore\n      dup1\n      swap2\n      pop\n      pop\n      0x01\n      swap1\n      sub\n      swap1\n      0x00\n      mstore\n      keccak256(0x00, 0x20)\n      add\n      0x00\n      swap1\n      swap2\n      swap1\n      swap2\n      swap1\n      swap2\n      pop\n      sstore\n        /* \"contracts/10_bai6.sol\":421:428  myArray */\n      0x00\n        /* \"contracts/10_bai6.sol\":434:435  5 */\n      0x05\n        /* \"contracts/10_bai6.sol\":421:436  myArray.push(5) */\n      swap1\n      dup1\n      0x01\n      dup2\n      sload\n      add\n      dup1\n      dup3\n      sstore\n      dup1\n      swap2\n      pop\n      pop\n      0x01\n      swap1\n      sub\n      swap1\n      0x00\n      mstore\n      keccak256(0x00, 0x20)\n      add\n      0x00\n      swap1\n      swap2\n      swap1\n      swap2\n      swap1\n      swap2\n      pop\n      sstore\n        /* \"contracts/10_bai6.sol\":459:466  myArray */\n      0x00\n        /* \"contracts/10_bai6.sol\":467:468  1 */\n      0x01\n        /* \"contracts/10_bai6.sol\":459:469  myArray[1] */\n      dup2\n      sload\n      dup2\n      lt\n      tag_17\n      jumpi\n      tag_18\n      tag_19\n      jump\t// in\n    tag_18:\n    tag_17:\n      swap1\n      0x00\n      mstore\n      pop(keccak256(0x00, 0x20))\n      pop\n        /* \"contracts/10_bai6.sol\":503:504  9 */\n      0x09\n        /* \"contracts/10_bai6.sol\":490:497  myArray */\n      0x00\n        /* \"contracts/10_bai6.sol\":498:499  0 */\n      dup1\n        /* \"contracts/10_bai6.sol\":490:500  myArray[0] */\n      dup2\n      sload\n      dup2\n      lt\n      tag_21\n      jumpi\n      tag_22\n      tag_19\n      jump\t// in\n    tag_22:\n    tag_21:\n      swap1\n      0x00\n      mstore\n      keccak256(0x00, 0x20)\n      add\n        /* \"contracts/10_bai6.sol\":490:504  myArray[0] = 9 */\n      dup2\n      swap1\n      sstore\n      pop\n        /* \"contracts/10_bai6.sol\":540:547  myArray */\n      0x00\n        /* \"contracts/10_bai6.sol\":548:549  0 */\n      dup1\n        /* \"contracts/10_bai6.sol\":540:550  myArray[0] */\n      dup2\n      sload\n      dup2\n      lt\n      tag_24\n      jumpi\n      tag_25\n      tag_19\n      jump\t// in\n    tag_25:\n    tag_24:\n      swap1\n      0x00\n      mstore\n      keccak256(0x00, 0x20)\n      add\n        /* \"contracts/10_bai6.sol\":533:550  delete myArray[0] */\n      0x00\n      swap1\n      sstore\n        /* \"contracts/10_bai6.sol\":585:591  uint i */\n      0x00\n        /* \"contracts/10_bai6.sol\":580:665  for (uint i = 0; i< myArray.length; i++) ... */\n    tag_27:\n        /* \"contracts/10_bai6.sol\":600:607  myArray */\n      0x00\n        /* \"contracts/10_bai6.sol\":600:614  myArray.length */\n      dup1\n      sload\n      swap1\n      pop\n        /* \"contracts/10_bai6.sol\":597:598  i */\n      dup2\n        /* \"contracts/10_bai6.sol\":597:614  i< myArray.length */\n      lt\n        /* \"contracts/10_bai6.sol\":580:665  for (uint i = 0; i< myArray.length; i++) ... */\n      iszero\n      tag_28\n      jumpi\n        /* \"contracts/10_bai6.sol\":644:651  myArray */\n      0x00\n        /* \"contracts/10_bai6.sol\":652:653  i */\n      dup2\n        /* \"contracts/10_bai6.sol\":644:654  myArray[i] */\n      dup2\n      sload\n      dup2\n      lt\n      tag_30\n      jumpi\n      tag_31\n      tag_19\n      jump\t// in\n    tag_31:\n    tag_30:\n      swap1\n      0x00\n      mstore\n      pop(keccak256(0x00, 0x20))\n      pop\n        /* \"contracts/10_bai6.sol\":616:619  i++ */\n      dup1\n      dup1\n      tag_33\n      swap1\n      tag_34\n      jump\t// in\n    tag_33:\n      swap2\n      pop\n      pop\n        /* \"contracts/10_bai6.sol\":580:665  for (uint i = 0; i< myArray.length; i++) ... */\n      jump(tag_27)\n    tag_28:\n      pop\n        /* \"contracts/10_bai6.sol\":354:671  function TEST() external  {... */\n      jump\t// out\n        /* \"contracts/10_bai6.sol\":1262:1325  function foo(uint[] calldata myArgs) external  {... */\n    tag_11:\n      pop\n      pop\n      jump\t// out\n        /* \"contracts/10_bai6.sol\":696:1002  function bar() external  {... */\n    tag_13:\n        /* \"contracts/10_bai6.sol\":731:753  uint[] memory newArray */\n      0x00\n        /* \"contracts/10_bai6.sol\":767:769  10 */\n      0x0a\n        /* \"contracts/10_bai6.sol\":756:770  new uint[](10) */\n      0xffffffffffffffff\n      dup2\n      gt\n      iszero\n      tag_37\n      jumpi\n      tag_38\n      tag_39\n      jump\t// in\n    tag_38:\n    tag_37:\n      mload(0x40)\n      swap1\n      dup1\n      dup3\n      mstore\n      dup1\n      0x20\n      mul\n      0x20\n      add\n      dup3\n      add\n      0x40\n      mstore\n      dup1\n      iszero\n      tag_40\n      jumpi\n      dup2\n      0x20\n      add\n      0x20\n      dup3\n      mul\n      dup1\n      calldatasize\n      dup4\n      calldatacopy\n      dup1\n      dup3\n      add\n      swap2\n      pop\n      pop\n      swap1\n      pop\n    tag_40:\n      pop\n        /* \"contracts/10_bai6.sol\":731:770  uint[] memory newArray = new uint[](10) */\n      swap1\n      pop\n        /* \"contracts/10_bai6.sol\":855:856  4 */\n      0x04\n        /* \"contracts/10_bai6.sol\":841:849  newArray */\n      dup2\n        /* \"contracts/10_bai6.sol\":850:851  0 */\n      0x00\n        /* \"contracts/10_bai6.sol\":841:852  newArray[0] */\n      dup2\n      mload\n      dup2\n      lt\n      tag_41\n      jumpi\n      tag_42\n      tag_19\n      jump\t// in\n    tag_42:\n    tag_41:\n      0x20\n      mul\n      0x20\n      add\n      add\n        /* \"contracts/10_bai6.sol\":841:856  newArray[0] = 4 */\n      dup2\n      dup2\n      mstore\n      pop\n      pop\n        /* \"contracts/10_bai6.sol\":886:887  5 */\n      0x05\n        /* \"contracts/10_bai6.sol\":872:880  newArray */\n      dup2\n        /* \"contracts/10_bai6.sol\":881:882  1 */\n      0x01\n        /* \"contracts/10_bai6.sol\":872:883  newArray[1] */\n      dup2\n      mload\n      dup2\n      lt\n      tag_43\n      jumpi\n      tag_44\n      tag_19\n      jump\t// in\n    tag_44:\n    tag_43:\n      0x20\n      mul\n      0x20\n      add\n      add\n        /* \"contracts/10_bai6.sol\":872:887  newArray[1] = 5 */\n      dup2\n      dup2\n      mstore\n      pop\n      pop\n        /* \"contracts/10_bai6.sol\":904:911  myArray */\n      0x00\n        /* \"contracts/10_bai6.sol\":912:913  1 */\n      0x01\n        /* \"contracts/10_bai6.sol\":904:914  myArray[1] */\n      dup2\n      sload\n      dup2\n      lt\n      tag_45\n      jumpi\n      tag_46\n      tag_19\n      jump\t// in\n    tag_46:\n    tag_45:\n      swap1\n      0x00\n      mstore\n      pop(keccak256(0x00, 0x20))\n      pop\n        /* \"contracts/10_bai6.sol\":945:946  9 */\n      0x09\n        /* \"contracts/10_bai6.sol\":932:939  myArray */\n      0x00\n        /* \"contracts/10_bai6.sol\":940:941  0 */\n      dup1\n        /* \"contracts/10_bai6.sol\":932:942  myArray[0] */\n      dup2\n      sload\n      dup2\n      lt\n      tag_48\n      jumpi\n      tag_49\n      tag_19\n      jump\t// in\n    tag_49:\n    tag_48:\n      swap1\n      0x00\n      mstore\n      keccak256(0x00, 0x20)\n      add\n        /* \"contracts/10_bai6.sol\":932:946  myArray[0] = 9 */\n      dup2\n      swap1\n      sstore\n      pop\n        /* \"contracts/10_bai6.sol\":974:981  myArray */\n      0x00\n        /* \"contracts/10_bai6.sol\":982:983  0 */\n      dup1\n        /* \"contracts/10_bai6.sol\":974:984  myArray[0] */\n      dup2\n      sload\n      dup2\n      lt\n      tag_51\n      jumpi\n      tag_52\n      tag_19\n      jump\t// in\n    tag_52:\n    tag_51:\n      swap1\n      0x00\n      mstore\n      keccak256(0x00, 0x20)\n      add\n        /* \"contracts/10_bai6.sol\":967:984  delete myArray[0] */\n      0x00\n      swap1\n      sstore\n        /* \"contracts/10_bai6.sol\":721:1002  {... */\n      pop\n        /* \"contracts/10_bai6.sol\":696:1002  function bar() external  {... */\n      jump\t// out\n        /* \"#utility.yul\":88:205   */\n    tag_55:\n        /* \"#utility.yul\":197:198   */\n      0x00\n        /* \"#utility.yul\":194:195   */\n      dup1\n        /* \"#utility.yul\":187:199   */\n      revert\n        /* \"#utility.yul\":211:328   */\n    tag_56:\n        /* \"#utility.yul\":320:321   */\n      0x00\n        /* \"#utility.yul\":317:318   */\n      dup1\n        /* \"#utility.yul\":310:322   */\n      revert\n        /* \"#utility.yul\":334:451   */\n    tag_57:\n        /* \"#utility.yul\":443:444   */\n      0x00\n        /* \"#utility.yul\":440:441   */\n      dup1\n        /* \"#utility.yul\":433:445   */\n      revert\n        /* \"#utility.yul\":457:574   */\n    tag_58:\n        /* \"#utility.yul\":566:567   */\n      0x00\n        /* \"#utility.yul\":563:564   */\n      dup1\n        /* \"#utility.yul\":556:568   */\n      revert\n        /* \"#utility.yul\":580:697   */\n    tag_59:\n        /* \"#utility.yul\":689:690   */\n      0x00\n        /* \"#utility.yul\":686:687   */\n      dup1\n        /* \"#utility.yul\":679:691   */\n      revert\n        /* \"#utility.yul\":720:1288   */\n    tag_60:\n        /* \"#utility.yul\":793:801   */\n      0x00\n        /* \"#utility.yul\":803:809   */\n      dup1\n        /* \"#utility.yul\":853:856   */\n      dup4\n        /* \"#utility.yul\":846:850   */\n      0x1f\n        /* \"#utility.yul\":838:844   */\n      dup5\n        /* \"#utility.yul\":834:851   */\n      add\n        /* \"#utility.yul\":830:857   */\n      slt\n        /* \"#utility.yul\":820:942   */\n      tag_71\n      jumpi\n        /* \"#utility.yul\":861:940   */\n      tag_72\n      tag_57\n      jump\t// in\n    tag_72:\n        /* \"#utility.yul\":820:942   */\n    tag_71:\n        /* \"#utility.yul\":974:980   */\n      dup3\n        /* \"#utility.yul\":961:981   */\n      calldataload\n        /* \"#utility.yul\":951:981   */\n      swap1\n      pop\n        /* \"#utility.yul\":1004:1022   */\n      0xffffffffffffffff\n        /* \"#utility.yul\":996:1002   */\n      dup2\n        /* \"#utility.yul\":993:1023   */\n      gt\n        /* \"#utility.yul\":990:1107   */\n      iszero\n      tag_73\n      jumpi\n        /* \"#utility.yul\":1026:1105   */\n      tag_74\n      tag_58\n      jump\t// in\n    tag_74:\n        /* \"#utility.yul\":990:1107   */\n    tag_73:\n        /* \"#utility.yul\":1140:1144   */\n      0x20\n        /* \"#utility.yul\":1132:1138   */\n      dup4\n        /* \"#utility.yul\":1128:1145   */\n      add\n        /* \"#utility.yul\":1116:1145   */\n      swap2\n      pop\n        /* \"#utility.yul\":1194:1197   */\n      dup4\n        /* \"#utility.yul\":1186:1190   */\n      0x20\n        /* \"#utility.yul\":1178:1184   */\n      dup3\n        /* \"#utility.yul\":1174:1191   */\n      mul\n        /* \"#utility.yul\":1164:1172   */\n      dup4\n        /* \"#utility.yul\":1160:1192   */\n      add\n        /* \"#utility.yul\":1157:1198   */\n      gt\n        /* \"#utility.yul\":1154:1282   */\n      iszero\n      tag_75\n      jumpi\n        /* \"#utility.yul\":1201:1280   */\n      tag_76\n      tag_59\n      jump\t// in\n    tag_76:\n        /* \"#utility.yul\":1154:1282   */\n    tag_75:\n        /* \"#utility.yul\":720:1288   */\n      swap3\n      pop\n      swap3\n      swap1\n      pop\n      jump\t// out\n        /* \"#utility.yul\":1294:1853   */\n    tag_10:\n        /* \"#utility.yul\":1380:1386   */\n      0x00\n        /* \"#utility.yul\":1388:1394   */\n      dup1\n        /* \"#utility.yul\":1437:1439   */\n      0x20\n        /* \"#utility.yul\":1425:1434   */\n      dup4\n        /* \"#utility.yul\":1416:1423   */\n      dup6\n        /* \"#utility.yul\":1412:1435   */\n      sub\n        /* \"#utility.yul\":1408:1440   */\n      slt\n        /* \"#utility.yul\":1405:1524   */\n      iszero\n      tag_78\n      jumpi\n        /* \"#utility.yul\":1443:1522   */\n      tag_79\n      tag_55\n      jump\t// in\n    tag_79:\n        /* \"#utility.yul\":1405:1524   */\n    tag_78:\n        /* \"#utility.yul\":1591:1592   */\n      0x00\n        /* \"#utility.yul\":1580:1589   */\n      dup4\n        /* \"#utility.yul\":1576:1593   */\n      add\n        /* \"#utility.yul\":1563:1594   */\n      calldataload\n        /* \"#utility.yul\":1621:1639   */\n      0xffffffffffffffff\n        /* \"#utility.yul\":1613:1619   */\n      dup2\n        /* \"#utility.yul\":1610:1640   */\n      gt\n        /* \"#utility.yul\":1607:1724   */\n      iszero\n      tag_80\n      jumpi\n        /* \"#utility.yul\":1643:1722   */\n      tag_81\n      tag_56\n      jump\t// in\n    tag_81:\n        /* \"#utility.yul\":1607:1724   */\n    tag_80:\n        /* \"#utility.yul\":1756:1836   */\n      tag_82\n        /* \"#utility.yul\":1828:1835   */\n      dup6\n        /* \"#utility.yul\":1819:1825   */\n      dup3\n        /* \"#utility.yul\":1808:1817   */\n      dup7\n        /* \"#utility.yul\":1804:1826   */\n      add\n        /* \"#utility.yul\":1756:1836   */\n      tag_60\n      jump\t// in\n    tag_82:\n        /* \"#utility.yul\":1738:1836   */\n      swap3\n      pop\n      swap3\n      pop\n        /* \"#utility.yul\":1534:1846   */\n      pop\n        /* \"#utility.yul\":1294:1853   */\n      swap3\n      pop\n      swap3\n      swap1\n      pop\n      jump\t// out\n        /* \"#utility.yul\":1859:2039   */\n    tag_19:\n        /* \"#utility.yul\":1907:1984   */\n      0x4e487b7100000000000000000000000000000000000000000000000000000000\n        /* \"#utility.yul\":1904:1905   */\n      0x00\n        /* \"#utility.yul\":1897:1985   */\n      mstore\n        /* \"#utility.yul\":2004:2008   */\n      0x32\n        /* \"#utility.yul\":2001:2002   */\n      0x04\n        /* \"#utility.yul\":1994:2009   */\n      mstore\n        /* \"#utility.yul\":2028:2032   */\n      0x24\n        /* \"#utility.yul\":2025:2026   */\n      0x00\n        /* \"#utility.yul\":2018:2033   */\n      revert\n        /* \"#utility.yul\":2045:2225   */\n    tag_61:\n        /* \"#utility.yul\":2093:2170   */\n      0x4e487b7100000000000000000000000000000000000000000000000000000000\n        /* \"#utility.yul\":2090:2091   */\n      0x00\n        /* \"#utility.yul\":2083:2171   */\n      mstore\n        /* \"#utility.yul\":2190:2194   */\n      0x11\n        /* \"#utility.yul\":2187:2188   */\n      0x04\n        /* \"#utility.yul\":2180:2195   */\n      mstore\n        /* \"#utility.yul\":2214:2218   */\n      0x24\n        /* \"#utility.yul\":2211:2212   */\n      0x00\n        /* \"#utility.yul\":2204:2219   */\n      revert\n        /* \"#utility.yul\":2231:2308   */\n    tag_62:\n        /* \"#utility.yul\":2268:2275   */\n      0x00\n        /* \"#utility.yul\":2297:2302   */\n      dup2\n        /* \"#utility.yul\":2286:2302   */\n      swap1\n      pop\n        /* \"#utility.yul\":2231:2308   */\n      swap2\n      swap1\n      pop\n      jump\t// out\n        /* \"#utility.yul\":2314:2547   */\n    tag_34:\n        /* \"#utility.yul\":2353:2356   */\n      0x00\n        /* \"#utility.yul\":2376:2400   */\n      tag_87\n        /* \"#utility.yul\":2394:2399   */\n      dup3\n        /* \"#utility.yul\":2376:2400   */\n      tag_62\n      jump\t// in\n    tag_87:\n        /* \"#utility.yul\":2367:2400   */\n      swap2\n      pop\n        /* \"#utility.yul\":2422:2488   */\n      0xffffffffffffffffffffffffffffffffffffffffffffffffffffffffffffffff\n        /* \"#utility.yul\":2415:2420   */\n      dup3\n        /* \"#utility.yul\":2412:2489   */\n      sub\n        /* \"#utility.yul\":2409:2512   */\n      tag_88\n      jumpi\n        /* \"#utility.yul\":2492:2510   */\n      tag_89\n      tag_61\n      jump\t// in\n    tag_89:\n        /* \"#utility.yul\":2409:2512   */\n    tag_88:\n        /* \"#utility.yul\":2539:2540   */\n      0x01\n        /* \"#utility.yul\":2532:2537   */\n      dup3\n        /* \"#utility.yul\":2528:2541   */\n      add\n        /* \"#utility.yul\":2521:2541   */\n      swap1\n      pop\n        /* \"#utility.yul\":2314:2547   */\n      swap2\n      swap1\n      pop\n      jump\t// out\n        /* \"#utility.yul\":2553:2733   */\n    tag_39:\n        /* \"#utility.yul\":2601:2678   */\n      0x4e487b7100000000000000000000000000000000000000000000000000000000\n        /* \"#utility.yul\":2598:2599   */\n      0x00\n        /* \"#utility.yul\":2591:2679   */\n      mstore\n        /* \"#utility.yul\":2698:2702   */\n      0x41\n        /* \"#utility.yul\":2695:2696   */\n      0x04\n        /* \"#utility.yul\":2688:2703   */\n      mstore\n        /* \"#utility.yul\":2722:2726   */\n      0x24\n        /* \"#utility.yul\":2719:2720   */\n      0x00\n        /* \"#utility.yul\":2712:2727   */\n      revert\n\n    auxdata: 0xa26469706673582212201f08647979573f68fd1965f30a978587375fba714346cc74eae2ffdfe8dd245664736f6c63430008120033\n}\n",
				"bytecode": {
					"linkReferences": {},
					"object": "608060405234801561001057600080fd5b50610445806100206000396000f3fe608060405234801561001057600080fd5b50600436106100415760003560e01c806351d977a6146100465780638b44cef114610050578063febb0f7e1461006c575b600080fd5b61004e610076565b005b61006a600480360381019061006591906102e3565b610175565b005b610074610179565b005b60006002908060018154018082558091505060019003906000526020600020016000909190919091505560006005908060018154018082558091505060019003906000526020600020016000909190919091505560006001815481106100df576100de610330565b5b9060005260206000205050600960008081548110610100576100ff610330565b5b90600052602060002001819055506000808154811061012257610121610330565b5b906000526020600020016000905560005b600080549050811015610172576000818154811061015457610153610330565b5b9060005260206000205050808061016a90610398565b915050610133565b50565b5050565b6000600a67ffffffffffffffff811115610196576101956103e0565b5b6040519080825280602002602001820160405280156101c45781602001602082028036833780820191505090505b5090506004816000815181106101dd576101dc610330565b5b6020026020010181815250506005816001815181106101ff576101fe610330565b5b60200260200101818152505060006001815481106102205761021f610330565b5b906000526020600020505060096000808154811061024157610240610330565b5b90600052602060002001819055506000808154811061026357610262610330565b5b906000526020600020016000905550565b600080fd5b600080fd5b600080fd5b600080fd5b600080fd5b60008083601f8401126102a3576102a261027e565b5b8235905067ffffffffffffffff8111156102c0576102bf610283565b5b6020830191508360208202830111156102dc576102db610288565b5b9250929050565b600080602083850312156102fa576102f9610274565b5b600083013567ffffffffffffffff81111561031857610317610279565b5b6103248582860161028d565b92509250509250929050565b7f4e487b7100000000000000000000000000000000000000000000000000000000600052603260045260246000fd5b7f4e487b7100000000000000000000000000000000000000000000000000000000600052601160045260246000fd5b6000819050919050565b60006103a38261038e565b91507fffffffffffffffffffffffffffffffffffffffffffffffffffffffffffffffff82036103d5576103d461035f565b5b600182019050919050565b7f4e487b7100000000000000000000000000000000000000000000000000000000600052604160045260246000fdfea26469706673582212201f08647979573f68fd1965f30a978587375fba714346cc74eae2ffdfe8dd245664736f6c63430008120033",
					"opcodes": "PUSH1 0x80 PUSH1 0x40 MSTORE CALLVALUE DUP1 ISZERO PUSH2 0x10 JUMPI PUSH1 0x0 DUP1 REVERT JUMPDEST POP PUSH2 0x445 DUP1 PUSH2 0x20 PUSH1 0x0 CODECOPY PUSH1 0x0 RETURN INVALID PUSH1 0x80 PUSH1 0x40 MSTORE CALLVALUE DUP1 ISZERO PUSH2 0x10 JUMPI PUSH1 0x0 DUP1 REVERT JUMPDEST POP PUSH1 0x4 CALLDATASIZE LT PUSH2 0x41 JUMPI PUSH1 0x0 CALLDATALOAD PUSH1 0xE0 SHR DUP1 PUSH4 0x51D977A6 EQ PUSH2 0x46 JUMPI DUP1 PUSH4 0x8B44CEF1 EQ PUSH2 0x50 JUMPI DUP1 PUSH4 0xFEBB0F7E EQ PUSH2 0x6C JUMPI JUMPDEST PUSH1 0x0 DUP1 REVERT JUMPDEST PUSH2 0x4E PUSH2 0x76 JUMP JUMPDEST STOP JUMPDEST PUSH2 0x6A PUSH1 0x4 DUP1 CALLDATASIZE SUB DUP2 ADD SWAP1 PUSH2 0x65 SWAP2 SWAP1 PUSH2 0x2E3 JUMP JUMPDEST PUSH2 0x175 JUMP JUMPDEST STOP JUMPDEST PUSH2 0x74 PUSH2 0x179 JUMP JUMPDEST STOP JUMPDEST PUSH1 0x0 PUSH1 0x2 SWAP1 DUP1 PUSH1 0x1 DUP2 SLOAD ADD DUP1 DUP3 SSTORE DUP1 SWAP2 POP POP PUSH1 0x1 SWAP1 SUB SWAP1 PUSH1 0x0 MSTORE PUSH1 0x20 PUSH1 0x0 KECCAK256 ADD PUSH1 0x0 SWAP1 SWAP2 SWAP1 SWAP2 SWAP1 SWAP2 POP SSTORE PUSH1 0x0 PUSH1 0x5 SWAP1 DUP1 PUSH1 0x1 DUP2 SLOAD ADD DUP1 DUP3 SSTORE DUP1 SWAP2 POP POP PUSH1 0x1 SWAP1 SUB SWAP1 PUSH1 0x0 MSTORE PUSH1 0x20 PUSH1 0x0 KECCAK256 ADD PUSH1 0x0 SWAP1 SWAP2 SWAP1 SWAP2 SWAP1 SWAP2 POP SSTORE PUSH1 0x0 PUSH1 0x1 DUP2 SLOAD DUP2 LT PUSH2 0xDF JUMPI PUSH2 0xDE PUSH2 0x330 JUMP JUMPDEST JUMPDEST SWAP1 PUSH1 0x0 MSTORE PUSH1 0x20 PUSH1 0x0 KECCAK256 POP POP PUSH1 0x9 PUSH1 0x0 DUP1 DUP2 SLOAD DUP2 LT PUSH2 0x100 JUMPI PUSH2 0xFF PUSH2 0x330 JUMP JUMPDEST JUMPDEST SWAP1 PUSH1 0x0 MSTORE PUSH1 0x20 PUSH1 0x0 KECCAK256 ADD DUP2 SWAP1 SSTORE POP PUSH1 0x0 DUP1 DUP2 SLOAD DUP2 LT PUSH2 0x122 JUMPI PUSH2 0x121 PUSH2 0x330 JUMP JUMPDEST JUMPDEST SWAP1 PUSH1 0x0 MSTORE PUSH1 0x20 PUSH1 0x0 KECCAK256 ADD PUSH1 0x0 SWAP1 SSTORE PUSH1 0x0 JUMPDEST PUSH1 0x0 DUP1 SLOAD SWAP1 POP DUP2 LT ISZERO PUSH2 0x172 JUMPI PUSH1 0x0 DUP2 DUP2 SLOAD DUP2 LT PUSH2 0x154 JUMPI PUSH2 0x153 PUSH2 0x330 JUMP JUMPDEST JUMPDEST SWAP1 PUSH1 0x0 MSTORE PUSH1 0x20 PUSH1 0x0 KECCAK256 POP POP DUP1 DUP1 PUSH2 0x16A SWAP1 PUSH2 0x398 JUMP JUMPDEST SWAP2 POP POP PUSH2 0x133 JUMP JUMPDEST POP JUMP JUMPDEST POP POP JUMP JUMPDEST PUSH1 0x0 PUSH1 0xA PUSH8 0xFFFFFFFFFFFFFFFF DUP2 GT ISZERO PUSH2 0x196 JUMPI PUSH2 0x195 PUSH2 0x3E0 JUMP JUMPDEST JUMPDEST PUSH1 0x40 MLOAD SWAP1 DUP1 DUP3 MSTORE DUP1 PUSH1 0x20 MUL PUSH1 0x20 ADD DUP3 ADD PUSH1 0x40 MSTORE DUP1 ISZERO PUSH2 0x1C4 JUMPI DUP2 PUSH1 0x20 ADD PUSH1 0x20 DUP3 MUL DUP1 CALLDATASIZE DUP4 CALLDATACOPY DUP1 DUP3 ADD SWAP2 POP POP SWAP1 POP JUMPDEST POP SWAP1 POP PUSH1 0x4 DUP2 PUSH1 0x0 DUP2 MLOAD DUP2 LT PUSH2 0x1DD JUMPI PUSH2 0x1DC PUSH2 0x330 JUMP JUMPDEST JUMPDEST PUSH1 0x20 MUL PUSH1 0x20 ADD ADD DUP2 DUP2 MSTORE POP POP PUSH1 0x5 DUP2 PUSH1 0x1 DUP2 MLOAD DUP2 LT PUSH2 0x1FF JUMPI PUSH2 0x1FE PUSH2 0x330 JUMP JUMPDEST JUMPDEST PUSH1 0x20 MUL PUSH1 0x20 ADD ADD DUP2 DUP2 MSTORE POP POP PUSH1 0x0 PUSH1 0x1 DUP2 SLOAD DUP2 LT PUSH2 0x220 JUMPI PUSH2 0x21F PUSH2 0x330 JUMP JUMPDEST JUMPDEST SWAP1 PUSH1 0x0 MSTORE PUSH1 0x20 PUSH1 0x0 KECCAK256 POP POP PUSH1 0x9 PUSH1 0x0 DUP1 DUP2 SLOAD DUP2 LT PUSH2 0x241 JUMPI PUSH2 0x240 PUSH2 0x330 JUMP JUMPDEST JUMPDEST SWAP1 PUSH1 0x0 MSTORE PUSH1 0x20 PUSH1 0x0 KECCAK256 ADD DUP2 SWAP1 SSTORE POP PUSH1 0x0 DUP1 DUP2 SLOAD DUP2 LT PUSH2 0x263 JUMPI PUSH2 0x262 PUSH2 0x330 JUMP JUMPDEST JUMPDEST SWAP1 PUSH1 0x0 MSTORE PUSH1 0x20 PUSH1 0x0 KECCAK256 ADD PUSH1 0x0 SWAP1 SSTORE POP JUMP JUMPDEST PUSH1 0x0 DUP1 REVERT JUMPDEST PUSH1 0x0 DUP1 REVERT JUMPDEST PUSH1 0x0 DUP1 REVERT JUMPDEST PUSH1 0x0 DUP1 REVERT JUMPDEST PUSH1 0x0 DUP1 REVERT JUMPDEST PUSH1 0x0 DUP1 DUP4 PUSH1 0x1F DUP5 ADD SLT PUSH2 0x2A3 JUMPI PUSH2 0x2A2 PUSH2 0x27E JUMP JUMPDEST JUMPDEST DUP3 CALLDATALOAD SWAP1 POP PUSH8 0xFFFFFFFFFFFFFFFF DUP2 GT ISZERO PUSH2 0x2C0 JUMPI PUSH2 0x2BF PUSH2 0x283 JUMP JUMPDEST JUMPDEST PUSH1 0x20 DUP4 ADD SWAP2 POP DUP4 PUSH1 0x20 DUP3 MUL DUP4 ADD GT ISZERO PUSH2 0x2DC JUMPI PUSH2 0x2DB PUSH2 0x288 JUMP JUMPDEST JUMPDEST SWAP3 POP SWAP3 SWAP1 POP JUMP JUMPDEST PUSH1 0x0 DUP1 PUSH1 0x20 DUP4 DUP6 SUB SLT ISZERO PUSH2 0x2FA JUMPI PUSH2 0x2F9 PUSH2 0x274 JUMP JUMPDEST JUMPDEST PUSH1 0x0 DUP4 ADD CALLDATALOAD PUSH8 0xFFFFFFFFFFFFFFFF DUP2 GT ISZERO PUSH2 0x318 JUMPI PUSH2 0x317 PUSH2 0x279 JUMP JUMPDEST JUMPDEST PUSH2 0x324 DUP6 DUP3 DUP7 ADD PUSH2 0x28D JUMP JUMPDEST SWAP3 POP SWAP3 POP POP SWAP3 POP SWAP3 SWAP1 POP JUMP JUMPDEST PUSH32 0x4E487B7100000000000000000000000000000000000000000000000000000000 PUSH1 0x0 MSTORE PUSH1 0x32 PUSH1 0x4 MSTORE PUSH1 0x24 PUSH1 0x0 REVERT JUMPDEST PUSH32 0x4E487B7100000000000000000000000000000000000000000000000000000000 PUSH1 0x0 MSTORE PUSH1 0x11 PUSH1 0x4 MSTORE PUSH1 0x24 PUSH1 0x0 REVERT JUMPDEST PUSH1 0x0 DUP2 SWAP1 POP SWAP2 SWAP1 POP JUMP JUMPDEST PUSH1 0x0 PUSH2 0x3A3 DUP3 PUSH2 0x38E JUMP JUMPDEST SWAP2 POP PUSH32 0xFFFFFFFFFFFFFFFFFFFFFFFFFFFFFFFFFFFFFFFFFFFFFFFFFFFFFFFFFFFFFFFF DUP3 SUB PUSH2 0x3D5 JUMPI PUSH2 0x3D4 PUSH2 0x35F JUMP JUMPDEST JUMPDEST PUSH1 0x1 DUP3 ADD SWAP1 POP SWAP2 SWAP1 POP JUMP JUMPDEST PUSH32 0x4E487B7100000000000000000000000000000000000000000000000000000000 PUSH1 0x0 MSTORE PUSH1 0x41 PUSH1 0x4 MSTORE PUSH1 0x24 PUSH1 0x0 REVERT INVALID LOG2 PUSH5 0x6970667358 0x22 SLT KECCAK256 0x1F ADDMOD PUSH5 0x7979573F68 REVERT NOT PUSH6 0xF30A97858737 0x5F 0xBA PUSH18 0x4346CC74EAE2FFDFE8DD245664736F6C6343 STOP ADDMOD SLT STOP CALLER "
				},
				"gasEstimates": {
					"creation": {
						"codeDepositCost": "218600",
						"executionCost": "263",
						"totalCost": "218863"
					},
					"external": {
						"TEST()": "infinite",
						"bar()": "34189",
						"foo(uint256[])": "474"
					}
				},
				"methodIdentifiers": {
					"TEST()": "51d977a6",
					"bar()": "febb0f7e",
					"foo(uint256[])": "8b44cef1"
				}
			},
			"storageLayout": {
				"storage": [
					{
						"astId": 4,
						"contract": "contracts/10_bai6.sol:Bai6",
						"label": "myArray",
						"offset": 0,
						"slot": "0",
						"type": "t_array(t_uint256)dyn_storage"
					}
				],
				"types": {
					"t_array(t_uint256)dyn_storage": {
						"base": "t_uint256",
						"encoding": "dynamic_array",
						"label": "uint256[]",
						"numberOfBytes": "32"
					},
					"t_uint256": {
						"encoding": "inplace",
						"label": "uint256",
						"numberOfBytes": "32"
					}
				}
			},
			"userdoc": {
				"kind": "user",
				"methods": {},
				"version": 1
			}
		}
	}
}